{"contracts/AccessControl.sol":{"DocumentAccessControl":{"abi":[{"inputs":[],"stateMutability":"nonpayable","type":"constructor"},{"anonymous":false,"inputs":[{"indexed":true,"internalType":"bytes32","name":"role","type":"bytes32"},{"indexed":true,"internalType":"bytes32","name":"previousAdminRole","type":"bytes32"},{"indexed":true,"internalType":"bytes32","name":"newAdminRole","type":"bytes32"}],"name":"RoleAdminChanged","type":"event"},{"anonymous":false,"inputs":[{"indexed":true,"internalType":"bytes32","name":"role","type":"bytes32"},{"indexed":true,"internalType":"address","name":"account","type":"address"},{"indexed":true,"internalType":"address","name":"sender","type":"address"}],"name":"RoleGranted","type":"event"},{"anonymous":false,"inputs":[{"indexed":true,"internalType":"bytes32","name":"role","type":"bytes32"},{"indexed":true,"internalType":"address","name":"account","type":"address"},{"indexed":true,"internalType":"address","name":"sender","type":"address"}],"name":"RoleRevoked","type":"event"},{"inputs":[],"name":"DEFAULT_ADMIN_ROLE","outputs":[{"internalType":"bytes32","name":"","type":"bytes32"}],"stateMutability":"view","type":"function"},{"inputs":[],"name":"DOCUMENT_CREATOR_ROLE","outputs":[{"internalType":"bytes32","name":"","type":"bytes32"}],"stateMutability":"view","type":"function"},{"inputs":[],"name":"DOCUMENT_MANAGER_ROLE","outputs":[{"internalType":"bytes32","name":"","type":"bytes32"}],"stateMutability":"view","type":"function"},{"inputs":[],"name":"DOCUMENT_TRANSFERRER_ROLE","outputs":[{"internalType":"bytes32","name":"","type":"bytes32"}],"stateMutability":"view","type":"function"},{"inputs":[],"name":"DOCUMENT_VERIFIER_ROLE","outputs":[{"internalType":"bytes32","name":"","type":"bytes32"}],"stateMutability":"view","type":"function"},{"inputs":[{"internalType":"bytes32","name":"role","type":"bytes32"}],"name":"getRoleAdmin","outputs":[{"internalType":"bytes32","name":"","type":"bytes32"}],"stateMutability":"view","type":"function"},{"inputs":[{"internalType":"address","name":"account","type":"address"}],"name":"grantCreatorRole","outputs":[],"stateMutability":"nonpayable","type":"function"},{"inputs":[{"internalType":"address","name":"account","type":"address"}],"name":"grantManagerRole","outputs":[],"stateMutability":"nonpayable","type":"function"},{"inputs":[{"internalType":"bytes32","name":"role","type":"bytes32"},{"internalType":"address","name":"account","type":"address"}],"name":"grantRole","outputs":[],"stateMutability":"nonpayable","type":"function"},{"inputs":[{"internalType":"address","name":"account","type":"address"}],"name":"grantTransferrerRole","outputs":[],"stateMutability":"nonpayable","type":"function"},{"inputs":[{"internalType":"address","name":"account","type":"address"}],"name":"grantVerifierRole","outputs":[],"stateMutability":"nonpayable","type":"function"},{"inputs":[{"internalType":"bytes32","name":"role","type":"bytes32"},{"internalType":"address","name":"account","type":"address"}],"name":"hasRole","outputs":[{"internalType":"bool","name":"","type":"bool"}],"stateMutability":"view","type":"function"},{"inputs":[{"internalType":"bytes32","name":"role","type":"bytes32"},{"internalType":"address","name":"account","type":"address"}],"name":"renounceRole","outputs":[],"stateMutability":"nonpayable","type":"function"},{"inputs":[{"internalType":"bytes32","name":"role","type":"bytes32"},{"internalType":"address","name":"account","type":"address"}],"name":"revokeRole","outputs":[],"stateMutability":"nonpayable","type":"function"},{"inputs":[{"internalType":"bytes4","name":"interfaceId","type":"bytes4"}],"name":"supportsInterface","outputs":[{"internalType":"bool","name":"","type":"bool"}],"stateMutability":"view","type":"function"}],"evm":{"bytecode":{"linkReferences":{},"object":"608060405234801561001057600080fd5b5061001c6000336100c9565b6100467f03847c74d68de5e0a49c00aaaccf34d71da3f82959b2047b47ec8d18e1b33cde336100c9565b6100707f3845dab673963d3dd1c93046d7db0c2116e30b9edf014c54695cc855db4980e5336100c9565b61009a7f5520d115ceffb88f02315d646cd7618d18024f657afe794865243ed5b75fb04f336100c9565b6100c47f1b77b615a6f7472dccc95da55ac737524d79ebe88c41b59b5af4f97cb402c021336100c9565b610175565b6100d382826100d7565b5050565b6000828152602081815260408083206001600160a01b038516845290915290205460ff166100d3576000828152602081815260408083206001600160a01b03851684529091529020805460ff191660011790556101313390565b6001600160a01b0316816001600160a01b0316837f2f8788117e7eff1d82e926ec794901d17c78024a50270940304540a733656f0d60405160405180910390a45050565b6109c2806101846000396000f3fe608060405234801561001057600080fd5b50600436106100f55760003560e01c80635def9f8511610097578063a217fddf11610066578063a217fddf14610228578063cffafec214610230578063d547741f14610257578063ff157a0e1461026a57600080fd5b80635def9f85146101b45780635e9a6259146101db5780635fcbf9cf1461020257806391d148541461021557600080fd5b806326e885e3116100d357806326e885e3146101685780632f2ff15d1461017b57806336568abe1461018e5780634d43e6f0146101a157600080fd5b806301ffc9a7146100fa5780630337c06114610122578063248a9ca314610137575b600080fd5b61010d610108366004610797565b610291565b60405190151581526020015b60405180910390f35b6101356101303660046107dd565b6102c8565b005b61015a6101453660046107f8565b60009081526020819052604090206001015490565b604051908152602001610119565b6101356101763660046107dd565b610301565b610135610189366004610811565b610332565b61013561019c366004610811565b61035c565b6101356101af3660046107dd565b6103db565b61015a7f3845dab673963d3dd1c93046d7db0c2116e30b9edf014c54695cc855db4980e581565b61015a7f03847c74d68de5e0a49c00aaaccf34d71da3f82959b2047b47ec8d18e1b33cde81565b6101356102103660046107dd565b610410565b61010d610223366004610811565b610445565b61015a600081565b61015a7f5520d115ceffb88f02315d646cd7618d18024f657afe794865243ed5b75fb04f81565b610135610265366004610811565b61046e565b61015a7f1b77b615a6f7472dccc95da55ac737524d79ebe88c41b59b5af4f97cb402c02181565b60006001600160e01b03198216637965db0b60e01b14806102c257506301ffc9a760e01b6001600160e01b03198316145b92915050565b60006102d381610493565b6102fd7f3845dab673963d3dd1c93046d7db0c2116e30b9edf014c54695cc855db4980e583610332565b5050565b600061030c81610493565b6102fd7f5520d115ceffb88f02315d646cd7618d18024f657afe794865243ed5b75fb04f835b60008281526020819052604090206001015461034d81610493565b61035783836104a0565b505050565b6001600160a01b03811633146103d15760405162461bcd60e51b815260206004820152602f60248201527f416363657373436f6e74726f6c3a2063616e206f6e6c792072656e6f756e636560448201526e103937b632b9903337b91039b2b63360891b60648201526084015b60405180910390fd5b6102fd8282610524565b60006103e681610493565b6102fd7f03847c74d68de5e0a49c00aaaccf34d71da3f82959b2047b47ec8d18e1b33cde83610332565b600061041b81610493565b6102fd7f1b77b615a6f7472dccc95da55ac737524d79ebe88c41b59b5af4f97cb402c02183610332565b6000918252602082815260408084206001600160a01b0393909316845291905290205460ff1690565b60008281526020819052604090206001015461048981610493565b6103578383610524565b61049d8133610589565b50565b6104aa8282610445565b6102fd576000828152602081815260408083206001600160a01b03851684529091529020805460ff191660011790556104e03390565b6001600160a01b0316816001600160a01b0316837f2f8788117e7eff1d82e926ec794901d17c78024a50270940304540a733656f0d60405160405180910390a45050565b61052e8282610445565b156102fd576000828152602081815260408083206001600160a01b0385168085529252808320805460ff1916905551339285917ff6391f5c32d9c69d2a47ea670b442974b53935d1edc7fd64eb21e047a839171b9190a45050565b6105938282610445565b6102fd576105a0816105e2565b6105ab8360206105f4565b6040516020016105bc929190610861565b60408051601f198184030181529082905262461bcd60e51b82526103c8916004016108d6565b60606102c26001600160a01b03831660145b6060600061060383600261091f565b61060e906002610936565b67ffffffffffffffff81111561062657610626610949565b6040519080825280601f01601f191660200182016040528015610650576020820181803683370190505b509050600360fc1b8160008151811061066b5761066b61095f565b60200101906001600160f81b031916908160001a905350600f60fb1b8160018151811061069a5761069a61095f565b60200101906001600160f81b031916908160001a90535060006106be84600261091f565b6106c9906001610936565b90505b6001811115610741576f181899199a1a9b1b9c1cb0b131b232b360811b85600f16601081106106fd576106fd61095f565b1a60f81b8282815181106107135761071361095f565b60200101906001600160f81b031916908160001a90535060049490941c9361073a81610975565b90506106cc565b5083156107905760405162461bcd60e51b815260206004820181905260248201527f537472696e67733a20686578206c656e67746820696e73756666696369656e7460448201526064016103c8565b9392505050565b6000602082840312156107a957600080fd5b81356001600160e01b03198116811461079057600080fd5b80356001600160a01b03811681146107d857600080fd5b919050565b6000602082840312156107ef57600080fd5b610790826107c1565b60006020828403121561080a57600080fd5b5035919050565b6000806040838503121561082457600080fd5b82359150610834602084016107c1565b90509250929050565b60005b83811015610858578181015183820152602001610840565b50506000910152565b7f416363657373436f6e74726f6c3a206163636f756e742000000000000000000081526000835161089981601785016020880161083d565b7001034b99036b4b9b9b4b733903937b6329607d1b60179184019182015283516108ca81602884016020880161083d565b01602801949350505050565b60208152600082518060208401526108f581604085016020870161083d565b601f01601f19169190910160400192915050565b634e487b7160e01b600052601160045260246000fd5b80820281158282048414176102c2576102c2610909565b808201808211156102c2576102c2610909565b634e487b7160e01b600052604160045260246000fd5b634e487b7160e01b600052603260045260246000fd5b60008161098457610984610909565b50600019019056fea264697066735822122032188dd7352a9664aca87808db7f2c9095daa46afae3702ad539fd9f5accfa2d64736f6c63430008140033","opcodes":"PUSH1 0x80 PUSH1 0x40 MSTORE CALLVALUE DUP1 ISZERO PUSH2 0x10 JUMPI PUSH1 0x0 DUP1 REVERT JUMPDEST POP PUSH2 0x1C PUSH1 0x0 CALLER PUSH2 0xC9 JUMP JUMPDEST PUSH2 0x46 PUSH32 0x3847C74D68DE5E0A49C00AAACCF34D71DA3F82959B2047B47EC8D18E1B33CDE CALLER PUSH2 0xC9 JUMP JUMPDEST PUSH2 0x70 PUSH32 0x3845DAB673963D3DD1C93046D7DB0C2116E30B9EDF014C54695CC855DB4980E5 CALLER PUSH2 0xC9 JUMP JUMPDEST PUSH2 0x9A PUSH32 0x5520D115CEFFB88F02315D646CD7618D18024F657AFE794865243ED5B75FB04F CALLER PUSH2 0xC9 JUMP JUMPDEST PUSH2 0xC4 PUSH32 0x1B77B615A6F7472DCCC95DA55AC737524D79EBE88C41B59B5AF4F97CB402C021 CALLER PUSH2 0xC9 JUMP JUMPDEST PUSH2 0x175 JUMP JUMPDEST PUSH2 0xD3 DUP3 DUP3 PUSH2 0xD7 JUMP JUMPDEST POP POP JUMP JUMPDEST PUSH1 0x0 DUP3 DUP2 MSTORE PUSH1 0x20 DUP2 DUP2 MSTORE PUSH1 0x40 DUP1 DUP4 KECCAK256 PUSH1 0x1 PUSH1 0x1 PUSH1 0xA0 SHL SUB DUP6 AND DUP5 MSTORE SWAP1 SWAP2 MSTORE SWAP1 KECCAK256 SLOAD PUSH1 0xFF AND PUSH2 0xD3 JUMPI PUSH1 0x0 DUP3 DUP2 MSTORE PUSH1 0x20 DUP2 DUP2 MSTORE PUSH1 0x40 DUP1 DUP4 KECCAK256 PUSH1 0x1 PUSH1 0x1 PUSH1 0xA0 SHL SUB DUP6 AND DUP5 MSTORE SWAP1 SWAP2 MSTORE SWAP1 KECCAK256 DUP1 SLOAD PUSH1 0xFF NOT AND PUSH1 0x1 OR SWAP1 SSTORE PUSH2 0x131 CALLER SWAP1 JUMP JUMPDEST PUSH1 0x1 PUSH1 0x1 PUSH1 0xA0 SHL SUB AND DUP2 PUSH1 0x1 PUSH1 0x1 PUSH1 0xA0 SHL SUB AND DUP4 PUSH32 0x2F8788117E7EFF1D82E926EC794901D17C78024A50270940304540A733656F0D PUSH1 0x40 MLOAD PUSH1 0x40 MLOAD DUP1 SWAP2 SUB SWAP1 LOG4 POP POP JUMP JUMPDEST PUSH2 0x9C2 DUP1 PUSH2 0x184 PUSH1 0x0 CODECOPY PUSH1 0x0 RETURN INVALID PUSH1 0x80 PUSH1 0x40 MSTORE CALLVALUE DUP1 ISZERO PUSH2 0x10 JUMPI PUSH1 0x0 DUP1 REVERT JUMPDEST POP PUSH1 0x4 CALLDATASIZE LT PUSH2 0xF5 JUMPI PUSH1 0x0 CALLDATALOAD PUSH1 0xE0 SHR DUP1 PUSH4 0x5DEF9F85 GT PUSH2 0x97 JUMPI DUP1 PUSH4 0xA217FDDF GT PUSH2 0x66 JUMPI DUP1 PUSH4 0xA217FDDF EQ PUSH2 0x228 JUMPI DUP1 PUSH4 0xCFFAFEC2 EQ PUSH2 0x230 JUMPI DUP1 PUSH4 0xD547741F EQ PUSH2 0x257 JUMPI DUP1 PUSH4 0xFF157A0E EQ PUSH2 0x26A JUMPI PUSH1 0x0 DUP1 REVERT JUMPDEST DUP1 PUSH4 0x5DEF9F85 EQ PUSH2 0x1B4 JUMPI DUP1 PUSH4 0x5E9A6259 EQ PUSH2 0x1DB JUMPI DUP1 PUSH4 0x5FCBF9CF EQ PUSH2 0x202 JUMPI DUP1 PUSH4 0x91D14854 EQ PUSH2 0x215 JUMPI PUSH1 0x0 DUP1 REVERT JUMPDEST DUP1 PUSH4 0x26E885E3 GT PUSH2 0xD3 JUMPI DUP1 PUSH4 0x26E885E3 EQ PUSH2 0x168 JUMPI DUP1 PUSH4 0x2F2FF15D EQ PUSH2 0x17B JUMPI DUP1 PUSH4 0x36568ABE EQ PUSH2 0x18E JUMPI DUP1 PUSH4 0x4D43E6F0 EQ PUSH2 0x1A1 JUMPI PUSH1 0x0 DUP1 REVERT JUMPDEST DUP1 PUSH4 0x1FFC9A7 EQ PUSH2 0xFA JUMPI DUP1 PUSH4 0x337C061 EQ PUSH2 0x122 JUMPI DUP1 PUSH4 0x248A9CA3 EQ PUSH2 0x137 JUMPI JUMPDEST PUSH1 0x0 DUP1 REVERT JUMPDEST PUSH2 0x10D PUSH2 0x108 CALLDATASIZE PUSH1 0x4 PUSH2 0x797 JUMP JUMPDEST PUSH2 0x291 JUMP JUMPDEST PUSH1 0x40 MLOAD SWAP1 ISZERO ISZERO DUP2 MSTORE PUSH1 0x20 ADD JUMPDEST PUSH1 0x40 MLOAD DUP1 SWAP2 SUB SWAP1 RETURN JUMPDEST PUSH2 0x135 PUSH2 0x130 CALLDATASIZE PUSH1 0x4 PUSH2 0x7DD JUMP JUMPDEST PUSH2 0x2C8 JUMP JUMPDEST STOP JUMPDEST PUSH2 0x15A PUSH2 0x145 CALLDATASIZE PUSH1 0x4 PUSH2 0x7F8 JUMP JUMPDEST PUSH1 0x0 SWAP1 DUP2 MSTORE PUSH1 0x20 DUP2 SWAP1 MSTORE PUSH1 0x40 SWAP1 KECCAK256 PUSH1 0x1 ADD SLOAD SWAP1 JUMP JUMPDEST PUSH1 0x40 MLOAD SWAP1 DUP2 MSTORE PUSH1 0x20 ADD PUSH2 0x119 JUMP JUMPDEST PUSH2 0x135 PUSH2 0x176 CALLDATASIZE PUSH1 0x4 PUSH2 0x7DD JUMP JUMPDEST PUSH2 0x301 JUMP JUMPDEST PUSH2 0x135 PUSH2 0x189 CALLDATASIZE PUSH1 0x4 PUSH2 0x811 JUMP JUMPDEST PUSH2 0x332 JUMP JUMPDEST PUSH2 0x135 PUSH2 0x19C CALLDATASIZE PUSH1 0x4 PUSH2 0x811 JUMP JUMPDEST PUSH2 0x35C JUMP JUMPDEST PUSH2 0x135 PUSH2 0x1AF CALLDATASIZE PUSH1 0x4 PUSH2 0x7DD JUMP JUMPDEST PUSH2 0x3DB JUMP JUMPDEST PUSH2 0x15A PUSH32 0x3845DAB673963D3DD1C93046D7DB0C2116E30B9EDF014C54695CC855DB4980E5 DUP2 JUMP JUMPDEST PUSH2 0x15A PUSH32 0x3847C74D68DE5E0A49C00AAACCF34D71DA3F82959B2047B47EC8D18E1B33CDE DUP2 JUMP JUMPDEST PUSH2 0x135 PUSH2 0x210 CALLDATASIZE PUSH1 0x4 PUSH2 0x7DD JUMP JUMPDEST PUSH2 0x410 JUMP JUMPDEST PUSH2 0x10D PUSH2 0x223 CALLDATASIZE PUSH1 0x4 PUSH2 0x811 JUMP JUMPDEST PUSH2 0x445 JUMP JUMPDEST PUSH2 0x15A PUSH1 0x0 DUP2 JUMP JUMPDEST PUSH2 0x15A PUSH32 0x5520D115CEFFB88F02315D646CD7618D18024F657AFE794865243ED5B75FB04F DUP2 JUMP JUMPDEST PUSH2 0x135 PUSH2 0x265 CALLDATASIZE PUSH1 0x4 PUSH2 0x811 JUMP JUMPDEST PUSH2 0x46E JUMP JUMPDEST PUSH2 0x15A PUSH32 0x1B77B615A6F7472DCCC95DA55AC737524D79EBE88C41B59B5AF4F97CB402C021 DUP2 JUMP JUMPDEST PUSH1 0x0 PUSH1 0x1 PUSH1 0x1 PUSH1 0xE0 SHL SUB NOT DUP3 AND PUSH4 0x7965DB0B PUSH1 0xE0 SHL EQ DUP1 PUSH2 0x2C2 JUMPI POP PUSH4 0x1FFC9A7 PUSH1 0xE0 SHL PUSH1 0x1 PUSH1 0x1 PUSH1 0xE0 SHL SUB NOT DUP4 AND EQ JUMPDEST SWAP3 SWAP2 POP POP JUMP JUMPDEST PUSH1 0x0 PUSH2 0x2D3 DUP2 PUSH2 0x493 JUMP JUMPDEST PUSH2 0x2FD PUSH32 0x3845DAB673963D3DD1C93046D7DB0C2116E30B9EDF014C54695CC855DB4980E5 DUP4 PUSH2 0x332 JUMP JUMPDEST POP POP JUMP JUMPDEST PUSH1 0x0 PUSH2 0x30C DUP2 PUSH2 0x493 JUMP JUMPDEST PUSH2 0x2FD PUSH32 0x5520D115CEFFB88F02315D646CD7618D18024F657AFE794865243ED5B75FB04F DUP4 JUMPDEST PUSH1 0x0 DUP3 DUP2 MSTORE PUSH1 0x20 DUP2 SWAP1 MSTORE PUSH1 0x40 SWAP1 KECCAK256 PUSH1 0x1 ADD SLOAD PUSH2 0x34D DUP2 PUSH2 0x493 JUMP JUMPDEST PUSH2 0x357 DUP4 DUP4 PUSH2 0x4A0 JUMP JUMPDEST POP POP POP JUMP JUMPDEST PUSH1 0x1 PUSH1 0x1 PUSH1 0xA0 SHL SUB DUP2 AND CALLER EQ PUSH2 0x3D1 JUMPI PUSH1 0x40 MLOAD PUSH3 0x461BCD PUSH1 0xE5 SHL DUP2 MSTORE PUSH1 0x20 PUSH1 0x4 DUP3 ADD MSTORE PUSH1 0x2F PUSH1 0x24 DUP3 ADD MSTORE PUSH32 0x416363657373436F6E74726F6C3A2063616E206F6E6C792072656E6F756E6365 PUSH1 0x44 DUP3 ADD MSTORE PUSH15 0x103937B632B9903337B91039B2B633 PUSH1 0x89 SHL PUSH1 0x64 DUP3 ADD MSTORE PUSH1 0x84 ADD JUMPDEST PUSH1 0x40 MLOAD DUP1 SWAP2 SUB SWAP1 REVERT JUMPDEST PUSH2 0x2FD DUP3 DUP3 PUSH2 0x524 JUMP JUMPDEST PUSH1 0x0 PUSH2 0x3E6 DUP2 PUSH2 0x493 JUMP JUMPDEST PUSH2 0x2FD PUSH32 0x3847C74D68DE5E0A49C00AAACCF34D71DA3F82959B2047B47EC8D18E1B33CDE DUP4 PUSH2 0x332 JUMP JUMPDEST PUSH1 0x0 PUSH2 0x41B DUP2 PUSH2 0x493 JUMP JUMPDEST PUSH2 0x2FD PUSH32 0x1B77B615A6F7472DCCC95DA55AC737524D79EBE88C41B59B5AF4F97CB402C021 DUP4 PUSH2 0x332 JUMP JUMPDEST PUSH1 0x0 SWAP2 DUP3 MSTORE PUSH1 0x20 DUP3 DUP2 MSTORE PUSH1 0x40 DUP1 DUP5 KECCAK256 PUSH1 0x1 PUSH1 0x1 PUSH1 0xA0 SHL SUB SWAP4 SWAP1 SWAP4 AND DUP5 MSTORE SWAP2 SWAP1 MSTORE SWAP1 KECCAK256 SLOAD PUSH1 0xFF AND SWAP1 JUMP JUMPDEST PUSH1 0x0 DUP3 DUP2 MSTORE PUSH1 0x20 DUP2 SWAP1 MSTORE PUSH1 0x40 SWAP1 KECCAK256 PUSH1 0x1 ADD SLOAD PUSH2 0x489 DUP2 PUSH2 0x493 JUMP JUMPDEST PUSH2 0x357 DUP4 DUP4 PUSH2 0x524 JUMP JUMPDEST PUSH2 0x49D DUP2 CALLER PUSH2 0x589 JUMP JUMPDEST POP JUMP JUMPDEST PUSH2 0x4AA DUP3 DUP3 PUSH2 0x445 JUMP JUMPDEST PUSH2 0x2FD JUMPI PUSH1 0x0 DUP3 DUP2 MSTORE PUSH1 0x20 DUP2 DUP2 MSTORE PUSH1 0x40 DUP1 DUP4 KECCAK256 PUSH1 0x1 PUSH1 0x1 PUSH1 0xA0 SHL SUB DUP6 AND DUP5 MSTORE SWAP1 SWAP2 MSTORE SWAP1 KECCAK256 DUP1 SLOAD PUSH1 0xFF NOT AND PUSH1 0x1 OR SWAP1 SSTORE PUSH2 0x4E0 CALLER SWAP1 JUMP JUMPDEST PUSH1 0x1 PUSH1 0x1 PUSH1 0xA0 SHL SUB AND DUP2 PUSH1 0x1 PUSH1 0x1 PUSH1 0xA0 SHL SUB AND DUP4 PUSH32 0x2F8788117E7EFF1D82E926EC794901D17C78024A50270940304540A733656F0D PUSH1 0x40 MLOAD PUSH1 0x40 MLOAD DUP1 SWAP2 SUB SWAP1 LOG4 POP POP JUMP JUMPDEST PUSH2 0x52E DUP3 DUP3 PUSH2 0x445 JUMP JUMPDEST ISZERO PUSH2 0x2FD JUMPI PUSH1 0x0 DUP3 DUP2 MSTORE PUSH1 0x20 DUP2 DUP2 MSTORE PUSH1 0x40 DUP1 DUP4 KECCAK256 PUSH1 0x1 PUSH1 0x1 PUSH1 0xA0 SHL SUB DUP6 AND DUP1 DUP6 MSTORE SWAP3 MSTORE DUP1 DUP4 KECCAK256 DUP1 SLOAD PUSH1 0xFF NOT AND SWAP1 SSTORE MLOAD CALLER SWAP3 DUP6 SWAP2 PUSH32 0xF6391F5C32D9C69D2A47EA670B442974B53935D1EDC7FD64EB21E047A839171B SWAP2 SWAP1 LOG4 POP POP JUMP JUMPDEST PUSH2 0x593 DUP3 DUP3 PUSH2 0x445 JUMP JUMPDEST PUSH2 0x2FD JUMPI PUSH2 0x5A0 DUP2 PUSH2 0x5E2 JUMP JUMPDEST PUSH2 0x5AB DUP4 PUSH1 0x20 PUSH2 0x5F4 JUMP JUMPDEST PUSH1 0x40 MLOAD PUSH1 0x20 ADD PUSH2 0x5BC SWAP3 SWAP2 SWAP1 PUSH2 0x861 JUMP JUMPDEST PUSH1 0x40 DUP1 MLOAD PUSH1 0x1F NOT DUP2 DUP5 SUB ADD DUP2 MSTORE SWAP1 DUP3 SWAP1 MSTORE PUSH3 0x461BCD PUSH1 0xE5 SHL DUP3 MSTORE PUSH2 0x3C8 SWAP2 PUSH1 0x4 ADD PUSH2 0x8D6 JUMP JUMPDEST PUSH1 0x60 PUSH2 0x2C2 PUSH1 0x1 PUSH1 0x1 PUSH1 0xA0 SHL SUB DUP4 AND PUSH1 0x14 JUMPDEST PUSH1 0x60 PUSH1 0x0 PUSH2 0x603 DUP4 PUSH1 0x2 PUSH2 0x91F JUMP JUMPDEST PUSH2 0x60E SWAP1 PUSH1 0x2 PUSH2 0x936 JUMP JUMPDEST PUSH8 0xFFFFFFFFFFFFFFFF DUP2 GT ISZERO PUSH2 0x626 JUMPI PUSH2 0x626 PUSH2 0x949 JUMP JUMPDEST PUSH1 0x40 MLOAD SWAP1 DUP1 DUP3 MSTORE DUP1 PUSH1 0x1F ADD PUSH1 0x1F NOT AND PUSH1 0x20 ADD DUP3 ADD PUSH1 0x40 MSTORE DUP1 ISZERO PUSH2 0x650 JUMPI PUSH1 0x20 DUP3 ADD DUP2 DUP1 CALLDATASIZE DUP4 CALLDATACOPY ADD SWAP1 POP JUMPDEST POP SWAP1 POP PUSH1 0x3 PUSH1 0xFC SHL DUP2 PUSH1 0x0 DUP2 MLOAD DUP2 LT PUSH2 0x66B JUMPI PUSH2 0x66B PUSH2 0x95F JUMP JUMPDEST PUSH1 0x20 ADD ADD SWAP1 PUSH1 0x1 PUSH1 0x1 PUSH1 0xF8 SHL SUB NOT AND SWAP1 DUP2 PUSH1 0x0 BYTE SWAP1 MSTORE8 POP PUSH1 0xF PUSH1 0xFB SHL DUP2 PUSH1 0x1 DUP2 MLOAD DUP2 LT PUSH2 0x69A JUMPI PUSH2 0x69A PUSH2 0x95F JUMP JUMPDEST PUSH1 0x20 ADD ADD SWAP1 PUSH1 0x1 PUSH1 0x1 PUSH1 0xF8 SHL SUB NOT AND SWAP1 DUP2 PUSH1 0x0 BYTE SWAP1 MSTORE8 POP PUSH1 0x0 PUSH2 0x6BE DUP5 PUSH1 0x2 PUSH2 0x91F JUMP JUMPDEST PUSH2 0x6C9 SWAP1 PUSH1 0x1 PUSH2 0x936 JUMP JUMPDEST SWAP1 POP JUMPDEST PUSH1 0x1 DUP2 GT ISZERO PUSH2 0x741 JUMPI PUSH16 0x181899199A1A9B1B9C1CB0B131B232B3 PUSH1 0x81 SHL DUP6 PUSH1 0xF AND PUSH1 0x10 DUP2 LT PUSH2 0x6FD JUMPI PUSH2 0x6FD PUSH2 0x95F JUMP JUMPDEST BYTE PUSH1 0xF8 SHL DUP3 DUP3 DUP2 MLOAD DUP2 LT PUSH2 0x713 JUMPI PUSH2 0x713 PUSH2 0x95F JUMP JUMPDEST PUSH1 0x20 ADD ADD SWAP1 PUSH1 0x1 PUSH1 0x1 PUSH1 0xF8 SHL SUB NOT AND SWAP1 DUP2 PUSH1 0x0 BYTE SWAP1 MSTORE8 POP PUSH1 0x4 SWAP5 SWAP1 SWAP5 SHR SWAP4 PUSH2 0x73A DUP2 PUSH2 0x975 JUMP JUMPDEST SWAP1 POP PUSH2 0x6CC JUMP JUMPDEST POP DUP4 ISZERO PUSH2 0x790 JUMPI PUSH1 0x40 MLOAD PUSH3 0x461BCD PUSH1 0xE5 SHL DUP2 MSTORE PUSH1 0x20 PUSH1 0x4 DUP3 ADD DUP2 SWAP1 MSTORE PUSH1 0x24 DUP3 ADD MSTORE PUSH32 0x537472696E67733A20686578206C656E67746820696E73756666696369656E74 PUSH1 0x44 DUP3 ADD MSTORE PUSH1 0x64 ADD PUSH2 0x3C8 JUMP JUMPDEST SWAP4 SWAP3 POP POP POP JUMP JUMPDEST PUSH1 0x0 PUSH1 0x20 DUP3 DUP5 SUB SLT ISZERO PUSH2 0x7A9 JUMPI PUSH1 0x0 DUP1 REVERT JUMPDEST DUP2 CALLDATALOAD PUSH1 0x1 PUSH1 0x1 PUSH1 0xE0 SHL SUB NOT DUP2 AND DUP2 EQ PUSH2 0x790 JUMPI PUSH1 0x0 DUP1 REVERT JUMPDEST DUP1 CALLDATALOAD PUSH1 0x1 PUSH1 0x1 PUSH1 0xA0 SHL SUB DUP2 AND DUP2 EQ PUSH2 0x7D8 JUMPI PUSH1 0x0 DUP1 REVERT JUMPDEST SWAP2 SWAP1 POP JUMP JUMPDEST PUSH1 0x0 PUSH1 0x20 DUP3 DUP5 SUB SLT ISZERO PUSH2 0x7EF JUMPI PUSH1 0x0 DUP1 REVERT JUMPDEST PUSH2 0x790 DUP3 PUSH2 0x7C1 JUMP JUMPDEST PUSH1 0x0 PUSH1 0x20 DUP3 DUP5 SUB SLT ISZERO PUSH2 0x80A JUMPI PUSH1 0x0 DUP1 REVERT JUMPDEST POP CALLDATALOAD SWAP2 SWAP1 POP JUMP JUMPDEST PUSH1 0x0 DUP1 PUSH1 0x40 DUP4 DUP6 SUB SLT ISZERO PUSH2 0x824 JUMPI PUSH1 0x0 DUP1 REVERT JUMPDEST DUP3 CALLDATALOAD SWAP2 POP PUSH2 0x834 PUSH1 0x20 DUP5 ADD PUSH2 0x7C1 JUMP JUMPDEST SWAP1 POP SWAP3 POP SWAP3 SWAP1 POP JUMP JUMPDEST PUSH1 0x0 JUMPDEST DUP4 DUP2 LT ISZERO PUSH2 0x858 JUMPI DUP2 DUP2 ADD MLOAD DUP4 DUP3 ADD MSTORE PUSH1 0x20 ADD PUSH2 0x840 JUMP JUMPDEST POP POP PUSH1 0x0 SWAP2 ADD MSTORE JUMP JUMPDEST PUSH32 0x416363657373436F6E74726F6C3A206163636F756E7420000000000000000000 DUP2 MSTORE PUSH1 0x0 DUP4 MLOAD PUSH2 0x899 DUP2 PUSH1 0x17 DUP6 ADD PUSH1 0x20 DUP9 ADD PUSH2 0x83D JUMP JUMPDEST PUSH17 0x1034B99036B4B9B9B4B733903937B6329 PUSH1 0x7D SHL PUSH1 0x17 SWAP2 DUP5 ADD SWAP2 DUP3 ADD MSTORE DUP4 MLOAD PUSH2 0x8CA DUP2 PUSH1 0x28 DUP5 ADD PUSH1 0x20 DUP9 ADD PUSH2 0x83D JUMP JUMPDEST ADD PUSH1 0x28 ADD SWAP5 SWAP4 POP POP POP POP JUMP JUMPDEST PUSH1 0x20 DUP2 MSTORE PUSH1 0x0 DUP3 MLOAD DUP1 PUSH1 0x20 DUP5 ADD MSTORE PUSH2 0x8F5 DUP2 PUSH1 0x40 DUP6 ADD PUSH1 0x20 DUP8 ADD PUSH2 0x83D JUMP JUMPDEST PUSH1 0x1F ADD PUSH1 0x1F NOT AND SWAP2 SWAP1 SWAP2 ADD PUSH1 0x40 ADD SWAP3 SWAP2 POP POP JUMP JUMPDEST PUSH4 0x4E487B71 PUSH1 0xE0 SHL PUSH1 0x0 MSTORE PUSH1 0x11 PUSH1 0x4 MSTORE PUSH1 0x24 PUSH1 0x0 REVERT JUMPDEST DUP1 DUP3 MUL DUP2 ISZERO DUP3 DUP3 DIV DUP5 EQ OR PUSH2 0x2C2 JUMPI PUSH2 0x2C2 PUSH2 0x909 JUMP JUMPDEST DUP1 DUP3 ADD DUP1 DUP3 GT ISZERO PUSH2 0x2C2 JUMPI PUSH2 0x2C2 PUSH2 0x909 JUMP JUMPDEST PUSH4 0x4E487B71 PUSH1 0xE0 SHL PUSH1 0x0 MSTORE PUSH1 0x41 PUSH1 0x4 MSTORE PUSH1 0x24 PUSH1 0x0 REVERT JUMPDEST PUSH4 0x4E487B71 PUSH1 0xE0 SHL PUSH1 0x0 MSTORE PUSH1 0x32 PUSH1 0x4 MSTORE PUSH1 0x24 PUSH1 0x0 REVERT JUMPDEST PUSH1 0x0 DUP2 PUSH2 0x984 JUMPI PUSH2 0x984 PUSH2 0x909 JUMP JUMPDEST POP PUSH1 0x0 NOT ADD SWAP1 JUMP INVALID LOG2 PUSH5 0x6970667358 0x22 SLT KECCAK256 ORIGIN XOR DUP14 0xD7 CALLDATALOAD 0x2A SWAP7 PUSH5 0xACA87808DB PUSH32 0x2C9095DAA46AFAE3702AD539FD9F5ACCFA2D64736F6C63430008140033000000 "},"methodIdentifiers":{"DEFAULT_ADMIN_ROLE()":"a217fddf","DOCUMENT_CREATOR_ROLE()":"5e9a6259","DOCUMENT_MANAGER_ROLE()":"cffafec2","DOCUMENT_TRANSFERRER_ROLE()":"ff157a0e","DOCUMENT_VERIFIER_ROLE()":"5def9f85","getRoleAdmin(bytes32)":"248a9ca3","grantCreatorRole(address)":"4d43e6f0","grantManagerRole(address)":"26e885e3","grantRole(bytes32,address)":"2f2ff15d","grantTransferrerRole(address)":"5fcbf9cf","grantVerifierRole(address)":"0337c061","hasRole(bytes32,address)":"91d14854","renounceRole(bytes32,address)":"36568abe","revokeRole(bytes32,address)":"d547741f","supportsInterface(bytes4)":"01ffc9a7"}}}}}