{"contracts/DocumentManagement.sol":{"DocumentManagement":{"abi":[{"anonymous":false,"inputs":[{"indexed":true,"internalType":"uint256","name":"documentId","type":"uint256"},{"indexed":true,"internalType":"address","name":"creator","type":"address"},{"indexed":false,"internalType":"enum DocumentRegistry.DocumentCategory","name":"category","type":"uint8"}],"name":"DocumentCreated","type":"event"},{"anonymous":false,"inputs":[{"indexed":true,"internalType":"uint256","name":"documentId","type":"uint256"},{"indexed":true,"internalType":"address","name":"from","type":"address"},{"indexed":true,"internalType":"address","name":"to","type":"address"}],"name":"DocumentTransferred","type":"event"},{"anonymous":false,"inputs":[{"indexed":true,"internalType":"uint256","name":"documentId","type":"uint256"},{"indexed":false,"internalType":"address","name":"verifier","type":"address"}],"name":"DocumentVerified","type":"event"},{"anonymous":false,"inputs":[{"indexed":true,"internalType":"bytes32","name":"role","type":"bytes32"},{"indexed":true,"internalType":"bytes32","name":"previousAdminRole","type":"bytes32"},{"indexed":true,"internalType":"bytes32","name":"newAdminRole","type":"bytes32"}],"name":"RoleAdminChanged","type":"event"},{"anonymous":false,"inputs":[{"indexed":true,"internalType":"bytes32","name":"role","type":"bytes32"},{"indexed":true,"internalType":"address","name":"account","type":"address"},{"indexed":true,"internalType":"address","name":"sender","type":"address"}],"name":"RoleGranted","type":"event"},{"anonymous":false,"inputs":[{"indexed":true,"internalType":"bytes32","name":"role","type":"bytes32"},{"indexed":true,"internalType":"address","name":"account","type":"address"},{"indexed":true,"internalType":"address","name":"sender","type":"address"}],"name":"RoleRevoked","type":"event"},{"inputs":[],"name":"DEFAULT_ADMIN_ROLE","outputs":[{"internalType":"bytes32","name":"","type":"bytes32"}],"stateMutability":"view","type":"function"},{"inputs":[],"name":"DOCUMENT_CREATOR_ROLE","outputs":[{"internalType":"bytes32","name":"","type":"bytes32"}],"stateMutability":"view","type":"function"},{"inputs":[],"name":"DOCUMENT_TRANSFERRER_ROLE","outputs":[{"internalType":"bytes32","name":"","type":"bytes32"}],"stateMutability":"view","type":"function"},{"inputs":[],"name":"DOCUMENT_VERIFIER_ROLE","outputs":[{"internalType":"bytes32","name":"","type":"bytes32"}],"stateMutability":"view","type":"function"},{"inputs":[{"internalType":"enum DocumentRegistry.DocumentCategory","name":"_category","type":"uint8"},{"internalType":"bytes32","name":"_documentHash","type":"bytes32"},{"internalType":"uint256","name":"_expiryDate","type":"uint256"}],"name":"createDocument","outputs":[{"internalType":"uint256","name":"","type":"uint256"}],"stateMutability":"nonpayable","type":"function"},{"inputs":[{"internalType":"bytes32","name":"role","type":"bytes32"}],"name":"getRoleAdmin","outputs":[{"internalType":"bytes32","name":"","type":"bytes32"}],"stateMutability":"view","type":"function"},{"inputs":[{"internalType":"bytes32","name":"role","type":"bytes32"},{"internalType":"address","name":"account","type":"address"}],"name":"grantRole","outputs":[],"stateMutability":"nonpayable","type":"function"},{"inputs":[{"internalType":"bytes32","name":"role","type":"bytes32"},{"internalType":"address","name":"account","type":"address"}],"name":"hasRole","outputs":[{"internalType":"bool","name":"","type":"bool"}],"stateMutability":"view","type":"function"},{"inputs":[{"internalType":"bytes32","name":"role","type":"bytes32"},{"internalType":"address","name":"account","type":"address"}],"name":"renounceRole","outputs":[],"stateMutability":"nonpayable","type":"function"},{"inputs":[{"internalType":"bytes32","name":"role","type":"bytes32"},{"internalType":"address","name":"account","type":"address"}],"name":"revokeRole","outputs":[],"stateMutability":"nonpayable","type":"function"},{"inputs":[{"internalType":"bytes4","name":"interfaceId","type":"bytes4"}],"name":"supportsInterface","outputs":[{"internalType":"bool","name":"","type":"bool"}],"stateMutability":"view","type":"function"},{"inputs":[{"internalType":"uint256","name":"_documentId","type":"uint256"},{"internalType":"address","name":"_newHolder","type":"address"}],"name":"transferDocument","outputs":[],"stateMutability":"nonpayable","type":"function"},{"inputs":[{"internalType":"uint256","name":"_documentId","type":"uint256"}],"name":"verifyDocument","outputs":[],"stateMutability":"nonpayable","type":"function"}],"evm":{"bytecode":{"linkReferences":{},"object":"608060405234801561001057600080fd5b5061001c6000336100a4565b6100467f03847c74d68de5e0a49c00aaaccf34d71da3f82959b2047b47ec8d18e1b33cde336100a4565b6100707f3845dab673963d3dd1c93046d7db0c2116e30b9edf014c54695cc855db4980e5336100a4565b61009a7f1b77b615a6f7472dccc95da55ac737524d79ebe88c41b59b5af4f97cb402c021336100a4565b6001600355610150565b6100ae82826100b2565b5050565b6000828152602081815260408083206001600160a01b038516845290915290205460ff166100ae576000828152602081815260408083206001600160a01b03851684529091529020805460ff1916600117905561010c3390565b6001600160a01b0316816001600160a01b0316837f2f8788117e7eff1d82e926ec794901d17c78024a50270940304540a733656f0d60405160405180910390a45050565b610e158061015f6000396000f3fe608060405234801561001057600080fd5b50600436106100cf5760003560e01c80636dda61d91161008c578063d547741f11610066578063d547741f146101d1578063e1025384146101e4578063ee209d50146101f7578063ff157a0e1461020a57600080fd5b80636dda61d9146101a357806391d14854146101b6578063a217fddf146101c957600080fd5b806301ffc9a7146100d4578063248a9ca3146100fc5780632f2ff15d1461012d57806336568abe146101425780635def9f85146101555780635e9a62591461017c575b600080fd5b6100e76100e2366004610b8e565b610231565b60405190151581526020015b60405180910390f35b61011f61010a366004610bb8565b60009081526020819052604090206001015490565b6040519081526020016100f3565b61014061013b366004610bed565b610242565b005b610140610150366004610bed565b61026c565b61011f7f3845dab673963d3dd1c93046d7db0c2116e30b9edf014c54695cc855db4980e581565b61011f7f03847c74d68de5e0a49c00aaaccf34d71da3f82959b2047b47ec8d18e1b33cde81565b6101406101b1366004610bb8565b6102ef565b6100e76101c4366004610bed565b610380565b61011f600081565b6101406101df366004610bed565b6103a9565b6101406101f2366004610bed565b6103ce565b61011f610205366004610c19565b61059f565b61011f7f1b77b615a6f7472dccc95da55ac737524d79ebe88c41b59b5af4f97cb402c02181565b600061023c82610782565b92915050565b60008281526020819052604090206001015461025d8161078d565b610267838361079a565b505050565b6001600160a01b03811633146102e15760405162461bcd60e51b815260206004820152602f60248201527f416363657373436f6e74726f6c3a2063616e206f6e6c792072656e6f756e636560448201526e103937b632b9903337b91039b2b63360891b60648201526084015b60405180910390fd5b6102eb828261081e565b5050565b7f3845dab673963d3dd1c93046d7db0c2116e30b9edf014c54695cc855db4980e56103198161078d565b610321610883565b600061032c836108dc565b60018101805461ff00191661020017905560408051338152905191925084917f6966a20715f4337f34fd08d8aa190a3c343cf21ad67677b447632194d8d603089181900360200190a2506102eb6001600355565b6000918252602082815260408084206001600160a01b0393909316845291905290205460ff1690565b6000828152602081905260409020600101546103c48161078d565b610267838361081e565b7f1b77b615a6f7472dccc95da55ac737524d79ebe88c41b59b5af4f97cb402c0216103f88161078d565b610400610883565b600061040b846108dc565b9050600060018083015460ff169081111561042857610428610c52565b146104755760405162461bcd60e51b815260206004820152601960248201527f446f63756d656e74206e6f74207472616e7366657261626c650000000000000060448201526064016102d8565b600180820154610100900460ff16600481111561049457610494610c52565b14806104bd575060026001820154610100900460ff1660048111156104bb576104bb610c52565b145b6105095760405162461bcd60e51b815260206004820152601760248201527f496e76616c696420646f63756d656e742073746174757300000000000000000060448201526064016102d8565b600281810180546001600160a01b038681166001600160a01b031980841682179094556001808701805461ff00191661030017905560008a81526020968752604080822080549384018155825296812090910180549095168217909455935191169291839188917fafd9f2e6dfdde17d593b303bbbb47053d98a7ce79b03ca053d58ae499c7f55ae91a450506102676001600355565b60007f03847c74d68de5e0a49c00aaaccf34d71da3f82959b2047b47ec8d18e1b33cde6105cb8161078d565b6105d3610883565b60408051426020808301919091523360601b6bffffffffffffffffffffffff191682840152605480830188905283518084039091018152607483018085528151919092012061017483019093528281529060940187600181111561063957610639610c52565b8152602001600081523360208083018290526040808401929092526060830189905242608084015260a090920187905260008481526001808452919020835181559183015182820180549192909160ff191690838181111561069d5761069d610c52565b0217905550604082015160018201805461ff0019166101008360048111156106c7576106c7610c52565b0217905550606082015160018201805462010000600160b01b031916620100006001600160a01b039384160217905560808301516002830180546001600160a01b0319169190921617905560a0820151600382015560c0820151600482015560e090910151600590910155604051339082907f4963b6a0b6e56b56705f43ce976d27873095a5ee5c87582785bd46940b47790a90610766908a90610c68565b60405180910390a3915061077a6001600355565b509392505050565b600061023c8261094b565b6107978133610980565b50565b6107a48282610380565b6102eb576000828152602081815260408083206001600160a01b03851684529091529020805460ff191660011790556107da3390565b6001600160a01b0316816001600160a01b0316837f2f8788117e7eff1d82e926ec794901d17c78024a50270940304540a733656f0d60405160405180910390a45050565b6108288282610380565b156102eb576000828152602081815260408083206001600160a01b0385168085529252808320805460ff1916905551339285917ff6391f5c32d9c69d2a47ea670b442974b53935d1edc7fd64eb21e047a839171b9190a45050565b6002600354036108d55760405162461bcd60e51b815260206004820152601f60248201527f5265656e7472616e637947756172643a207265656e7472616e742063616c6c0060448201526064016102d8565b6002600355565b60008181526001602052604081205481036109395760405162461bcd60e51b815260206004820152601760248201527f446f63756d656e7420646f6573206e6f7420657869737400000000000000000060448201526064016102d8565b50600090815260016020526040902090565b60006001600160e01b03198216637965db0b60e01b148061023c57506301ffc9a760e01b6001600160e01b031983161461023c565b61098a8282610380565b6102eb57610997816109d9565b6109a28360206109eb565b6040516020016109b3929190610cb4565b60408051601f198184030181529082905262461bcd60e51b82526102d891600401610d29565b606061023c6001600160a01b03831660145b606060006109fa836002610d72565b610a05906002610d89565b67ffffffffffffffff811115610a1d57610a1d610d9c565b6040519080825280601f01601f191660200182016040528015610a47576020820181803683370190505b509050600360fc1b81600081518110610a6257610a62610db2565b60200101906001600160f81b031916908160001a905350600f60fb1b81600181518110610a9157610a91610db2565b60200101906001600160f81b031916908160001a9053506000610ab5846002610d72565b610ac0906001610d89565b90505b6001811115610b38576f181899199a1a9b1b9c1cb0b131b232b360811b85600f1660108110610af457610af4610db2565b1a60f81b828281518110610b0a57610b0a610db2565b60200101906001600160f81b031916908160001a90535060049490941c93610b3181610dc8565b9050610ac3565b508315610b875760405162461bcd60e51b815260206004820181905260248201527f537472696e67733a20686578206c656e67746820696e73756666696369656e7460448201526064016102d8565b9392505050565b600060208284031215610ba057600080fd5b81356001600160e01b031981168114610b8757600080fd5b600060208284031215610bca57600080fd5b5035919050565b80356001600160a01b0381168114610be857600080fd5b919050565b60008060408385031215610c0057600080fd5b82359150610c1060208401610bd1565b90509250929050565b600080600060608486031215610c2e57600080fd5b833560028110610c3d57600080fd5b95602085013595506040909401359392505050565b634e487b7160e01b600052602160045260246000fd5b6020810160028310610c8a57634e487b7160e01b600052602160045260246000fd5b91905290565b60005b83811015610cab578181015183820152602001610c93565b50506000910152565b7f416363657373436f6e74726f6c3a206163636f756e7420000000000000000000815260008351610cec816017850160208801610c90565b7001034b99036b4b9b9b4b733903937b6329607d1b6017918401918201528351610d1d816028840160208801610c90565b01602801949350505050565b6020815260008251806020840152610d48816040850160208701610c90565b601f01601f19169190910160400192915050565b634e487b7160e01b600052601160045260246000fd5b808202811582820484141761023c5761023c610d5c565b8082018082111561023c5761023c610d5c565b634e487b7160e01b600052604160045260246000fd5b634e487b7160e01b600052603260045260246000fd5b600081610dd757610dd7610d5c565b50600019019056fea264697066735822122030f8d5bd6b362d058b99b6374084f916021c16e6e53479f5b6485413aba39c7d64736f6c63430008140033","opcodes":"PUSH1 0x80 PUSH1 0x40 MSTORE CALLVALUE DUP1 ISZERO PUSH2 0x10 JUMPI PUSH1 0x0 DUP1 REVERT JUMPDEST POP PUSH2 0x1C PUSH1 0x0 CALLER PUSH2 0xA4 JUMP JUMPDEST PUSH2 0x46 PUSH32 0x3847C74D68DE5E0A49C00AAACCF34D71DA3F82959B2047B47EC8D18E1B33CDE CALLER PUSH2 0xA4 JUMP JUMPDEST PUSH2 0x70 PUSH32 0x3845DAB673963D3DD1C93046D7DB0C2116E30B9EDF014C54695CC855DB4980E5 CALLER PUSH2 0xA4 JUMP JUMPDEST PUSH2 0x9A PUSH32 0x1B77B615A6F7472DCCC95DA55AC737524D79EBE88C41B59B5AF4F97CB402C021 CALLER PUSH2 0xA4 JUMP JUMPDEST PUSH1 0x1 PUSH1 0x3 SSTORE PUSH2 0x150 JUMP JUMPDEST PUSH2 0xAE DUP3 DUP3 PUSH2 0xB2 JUMP JUMPDEST POP POP JUMP JUMPDEST PUSH1 0x0 DUP3 DUP2 MSTORE PUSH1 0x20 DUP2 DUP2 MSTORE PUSH1 0x40 DUP1 DUP4 KECCAK256 PUSH1 0x1 PUSH1 0x1 PUSH1 0xA0 SHL SUB DUP6 AND DUP5 MSTORE SWAP1 SWAP2 MSTORE SWAP1 KECCAK256 SLOAD PUSH1 0xFF AND PUSH2 0xAE JUMPI PUSH1 0x0 DUP3 DUP2 MSTORE PUSH1 0x20 DUP2 DUP2 MSTORE PUSH1 0x40 DUP1 DUP4 KECCAK256 PUSH1 0x1 PUSH1 0x1 PUSH1 0xA0 SHL SUB DUP6 AND DUP5 MSTORE SWAP1 SWAP2 MSTORE SWAP1 KECCAK256 DUP1 SLOAD PUSH1 0xFF NOT AND PUSH1 0x1 OR SWAP1 SSTORE PUSH2 0x10C CALLER SWAP1 JUMP JUMPDEST PUSH1 0x1 PUSH1 0x1 PUSH1 0xA0 SHL SUB AND DUP2 PUSH1 0x1 PUSH1 0x1 PUSH1 0xA0 SHL SUB AND DUP4 PUSH32 0x2F8788117E7EFF1D82E926EC794901D17C78024A50270940304540A733656F0D PUSH1 0x40 MLOAD PUSH1 0x40 MLOAD DUP1 SWAP2 SUB SWAP1 LOG4 POP POP JUMP JUMPDEST PUSH2 0xE15 DUP1 PUSH2 0x15F PUSH1 0x0 CODECOPY PUSH1 0x0 RETURN INVALID PUSH1 0x80 PUSH1 0x40 MSTORE CALLVALUE DUP1 ISZERO PUSH2 0x10 JUMPI PUSH1 0x0 DUP1 REVERT JUMPDEST POP PUSH1 0x4 CALLDATASIZE LT PUSH2 0xCF JUMPI PUSH1 0x0 CALLDATALOAD PUSH1 0xE0 SHR DUP1 PUSH4 0x6DDA61D9 GT PUSH2 0x8C JUMPI DUP1 PUSH4 0xD547741F GT PUSH2 0x66 JUMPI DUP1 PUSH4 0xD547741F EQ PUSH2 0x1D1 JUMPI DUP1 PUSH4 0xE1025384 EQ PUSH2 0x1E4 JUMPI DUP1 PUSH4 0xEE209D50 EQ PUSH2 0x1F7 JUMPI DUP1 PUSH4 0xFF157A0E EQ PUSH2 0x20A JUMPI PUSH1 0x0 DUP1 REVERT JUMPDEST DUP1 PUSH4 0x6DDA61D9 EQ PUSH2 0x1A3 JUMPI DUP1 PUSH4 0x91D14854 EQ PUSH2 0x1B6 JUMPI DUP1 PUSH4 0xA217FDDF EQ PUSH2 0x1C9 JUMPI PUSH1 0x0 DUP1 REVERT JUMPDEST DUP1 PUSH4 0x1FFC9A7 EQ PUSH2 0xD4 JUMPI DUP1 PUSH4 0x248A9CA3 EQ PUSH2 0xFC JUMPI DUP1 PUSH4 0x2F2FF15D EQ PUSH2 0x12D JUMPI DUP1 PUSH4 0x36568ABE EQ PUSH2 0x142 JUMPI DUP1 PUSH4 0x5DEF9F85 EQ PUSH2 0x155 JUMPI DUP1 PUSH4 0x5E9A6259 EQ PUSH2 0x17C JUMPI JUMPDEST PUSH1 0x0 DUP1 REVERT JUMPDEST PUSH2 0xE7 PUSH2 0xE2 CALLDATASIZE PUSH1 0x4 PUSH2 0xB8E JUMP JUMPDEST PUSH2 0x231 JUMP JUMPDEST PUSH1 0x40 MLOAD SWAP1 ISZERO ISZERO DUP2 MSTORE PUSH1 0x20 ADD JUMPDEST PUSH1 0x40 MLOAD DUP1 SWAP2 SUB SWAP1 RETURN JUMPDEST PUSH2 0x11F PUSH2 0x10A CALLDATASIZE PUSH1 0x4 PUSH2 0xBB8 JUMP JUMPDEST PUSH1 0x0 SWAP1 DUP2 MSTORE PUSH1 0x20 DUP2 SWAP1 MSTORE PUSH1 0x40 SWAP1 KECCAK256 PUSH1 0x1 ADD SLOAD SWAP1 JUMP JUMPDEST PUSH1 0x40 MLOAD SWAP1 DUP2 MSTORE PUSH1 0x20 ADD PUSH2 0xF3 JUMP JUMPDEST PUSH2 0x140 PUSH2 0x13B CALLDATASIZE PUSH1 0x4 PUSH2 0xBED JUMP JUMPDEST PUSH2 0x242 JUMP JUMPDEST STOP JUMPDEST PUSH2 0x140 PUSH2 0x150 CALLDATASIZE PUSH1 0x4 PUSH2 0xBED JUMP JUMPDEST PUSH2 0x26C JUMP JUMPDEST PUSH2 0x11F PUSH32 0x3845DAB673963D3DD1C93046D7DB0C2116E30B9EDF014C54695CC855DB4980E5 DUP2 JUMP JUMPDEST PUSH2 0x11F PUSH32 0x3847C74D68DE5E0A49C00AAACCF34D71DA3F82959B2047B47EC8D18E1B33CDE DUP2 JUMP JUMPDEST PUSH2 0x140 PUSH2 0x1B1 CALLDATASIZE PUSH1 0x4 PUSH2 0xBB8 JUMP JUMPDEST PUSH2 0x2EF JUMP JUMPDEST PUSH2 0xE7 PUSH2 0x1C4 CALLDATASIZE PUSH1 0x4 PUSH2 0xBED JUMP JUMPDEST PUSH2 0x380 JUMP JUMPDEST PUSH2 0x11F PUSH1 0x0 DUP2 JUMP JUMPDEST PUSH2 0x140 PUSH2 0x1DF CALLDATASIZE PUSH1 0x4 PUSH2 0xBED JUMP JUMPDEST PUSH2 0x3A9 JUMP JUMPDEST PUSH2 0x140 PUSH2 0x1F2 CALLDATASIZE PUSH1 0x4 PUSH2 0xBED JUMP JUMPDEST PUSH2 0x3CE JUMP JUMPDEST PUSH2 0x11F PUSH2 0x205 CALLDATASIZE PUSH1 0x4 PUSH2 0xC19 JUMP JUMPDEST PUSH2 0x59F JUMP JUMPDEST PUSH2 0x11F PUSH32 0x1B77B615A6F7472DCCC95DA55AC737524D79EBE88C41B59B5AF4F97CB402C021 DUP2 JUMP JUMPDEST PUSH1 0x0 PUSH2 0x23C DUP3 PUSH2 0x782 JUMP JUMPDEST SWAP3 SWAP2 POP POP JUMP JUMPDEST PUSH1 0x0 DUP3 DUP2 MSTORE PUSH1 0x20 DUP2 SWAP1 MSTORE PUSH1 0x40 SWAP1 KECCAK256 PUSH1 0x1 ADD SLOAD PUSH2 0x25D DUP2 PUSH2 0x78D JUMP JUMPDEST PUSH2 0x267 DUP4 DUP4 PUSH2 0x79A JUMP JUMPDEST POP POP POP JUMP JUMPDEST PUSH1 0x1 PUSH1 0x1 PUSH1 0xA0 SHL SUB DUP2 AND CALLER EQ PUSH2 0x2E1 JUMPI PUSH1 0x40 MLOAD PUSH3 0x461BCD PUSH1 0xE5 SHL DUP2 MSTORE PUSH1 0x20 PUSH1 0x4 DUP3 ADD MSTORE PUSH1 0x2F PUSH1 0x24 DUP3 ADD MSTORE PUSH32 0x416363657373436F6E74726F6C3A2063616E206F6E6C792072656E6F756E6365 PUSH1 0x44 DUP3 ADD MSTORE PUSH15 0x103937B632B9903337B91039B2B633 PUSH1 0x89 SHL PUSH1 0x64 DUP3 ADD MSTORE PUSH1 0x84 ADD JUMPDEST PUSH1 0x40 MLOAD DUP1 SWAP2 SUB SWAP1 REVERT JUMPDEST PUSH2 0x2EB DUP3 DUP3 PUSH2 0x81E JUMP JUMPDEST POP POP JUMP JUMPDEST PUSH32 0x3845DAB673963D3DD1C93046D7DB0C2116E30B9EDF014C54695CC855DB4980E5 PUSH2 0x319 DUP2 PUSH2 0x78D JUMP JUMPDEST PUSH2 0x321 PUSH2 0x883 JUMP JUMPDEST PUSH1 0x0 PUSH2 0x32C DUP4 PUSH2 0x8DC JUMP JUMPDEST PUSH1 0x1 DUP2 ADD DUP1 SLOAD PUSH2 0xFF00 NOT AND PUSH2 0x200 OR SWAP1 SSTORE PUSH1 0x40 DUP1 MLOAD CALLER DUP2 MSTORE SWAP1 MLOAD SWAP2 SWAP3 POP DUP5 SWAP2 PUSH32 0x6966A20715F4337F34FD08D8AA190A3C343CF21AD67677B447632194D8D60308 SWAP2 DUP2 SWAP1 SUB PUSH1 0x20 ADD SWAP1 LOG2 POP PUSH2 0x2EB PUSH1 0x1 PUSH1 0x3 SSTORE JUMP JUMPDEST PUSH1 0x0 SWAP2 DUP3 MSTORE PUSH1 0x20 DUP3 DUP2 MSTORE PUSH1 0x40 DUP1 DUP5 KECCAK256 PUSH1 0x1 PUSH1 0x1 PUSH1 0xA0 SHL SUB SWAP4 SWAP1 SWAP4 AND DUP5 MSTORE SWAP2 SWAP1 MSTORE SWAP1 KECCAK256 SLOAD PUSH1 0xFF AND SWAP1 JUMP JUMPDEST PUSH1 0x0 DUP3 DUP2 MSTORE PUSH1 0x20 DUP2 SWAP1 MSTORE PUSH1 0x40 SWAP1 KECCAK256 PUSH1 0x1 ADD SLOAD PUSH2 0x3C4 DUP2 PUSH2 0x78D JUMP JUMPDEST PUSH2 0x267 DUP4 DUP4 PUSH2 0x81E JUMP JUMPDEST PUSH32 0x1B77B615A6F7472DCCC95DA55AC737524D79EBE88C41B59B5AF4F97CB402C021 PUSH2 0x3F8 DUP2 PUSH2 0x78D JUMP JUMPDEST PUSH2 0x400 PUSH2 0x883 JUMP JUMPDEST PUSH1 0x0 PUSH2 0x40B DUP5 PUSH2 0x8DC JUMP JUMPDEST SWAP1 POP PUSH1 0x0 PUSH1 0x1 DUP1 DUP4 ADD SLOAD PUSH1 0xFF AND SWAP1 DUP2 GT ISZERO PUSH2 0x428 JUMPI PUSH2 0x428 PUSH2 0xC52 JUMP JUMPDEST EQ PUSH2 0x475 JUMPI PUSH1 0x40 MLOAD PUSH3 0x461BCD PUSH1 0xE5 SHL DUP2 MSTORE PUSH1 0x20 PUSH1 0x4 DUP3 ADD MSTORE PUSH1 0x19 PUSH1 0x24 DUP3 ADD MSTORE PUSH32 0x446F63756D656E74206E6F74207472616E7366657261626C6500000000000000 PUSH1 0x44 DUP3 ADD MSTORE PUSH1 0x64 ADD PUSH2 0x2D8 JUMP JUMPDEST PUSH1 0x1 DUP1 DUP3 ADD SLOAD PUSH2 0x100 SWAP1 DIV PUSH1 0xFF AND PUSH1 0x4 DUP2 GT ISZERO PUSH2 0x494 JUMPI PUSH2 0x494 PUSH2 0xC52 JUMP JUMPDEST EQ DUP1 PUSH2 0x4BD JUMPI POP PUSH1 0x2 PUSH1 0x1 DUP3 ADD SLOAD PUSH2 0x100 SWAP1 DIV PUSH1 0xFF AND PUSH1 0x4 DUP2 GT ISZERO PUSH2 0x4BB JUMPI PUSH2 0x4BB PUSH2 0xC52 JUMP JUMPDEST EQ JUMPDEST PUSH2 0x509 JUMPI PUSH1 0x40 MLOAD PUSH3 0x461BCD PUSH1 0xE5 SHL DUP2 MSTORE PUSH1 0x20 PUSH1 0x4 DUP3 ADD MSTORE PUSH1 0x17 PUSH1 0x24 DUP3 ADD MSTORE PUSH32 0x496E76616C696420646F63756D656E7420737461747573000000000000000000 PUSH1 0x44 DUP3 ADD MSTORE PUSH1 0x64 ADD PUSH2 0x2D8 JUMP JUMPDEST PUSH1 0x2 DUP2 DUP2 ADD DUP1 SLOAD PUSH1 0x1 PUSH1 0x1 PUSH1 0xA0 SHL SUB DUP7 DUP2 AND PUSH1 0x1 PUSH1 0x1 PUSH1 0xA0 SHL SUB NOT DUP1 DUP5 AND DUP3 OR SWAP1 SWAP5 SSTORE PUSH1 0x1 DUP1 DUP8 ADD DUP1 SLOAD PUSH2 0xFF00 NOT AND PUSH2 0x300 OR SWAP1 SSTORE PUSH1 0x0 DUP11 DUP2 MSTORE PUSH1 0x20 SWAP7 DUP8 MSTORE PUSH1 0x40 DUP1 DUP3 KECCAK256 DUP1 SLOAD SWAP4 DUP5 ADD DUP2 SSTORE DUP3 MSTORE SWAP7 DUP2 KECCAK256 SWAP1 SWAP2 ADD DUP1 SLOAD SWAP1 SWAP6 AND DUP3 OR SWAP1 SWAP5 SSTORE SWAP4 MLOAD SWAP2 AND SWAP3 SWAP2 DUP4 SWAP2 DUP9 SWAP2 PUSH32 0xAFD9F2E6DFDDE17D593B303BBBB47053D98A7CE79B03CA053D58AE499C7F55AE SWAP2 LOG4 POP POP PUSH2 0x267 PUSH1 0x1 PUSH1 0x3 SSTORE JUMP JUMPDEST PUSH1 0x0 PUSH32 0x3847C74D68DE5E0A49C00AAACCF34D71DA3F82959B2047B47EC8D18E1B33CDE PUSH2 0x5CB DUP2 PUSH2 0x78D JUMP JUMPDEST PUSH2 0x5D3 PUSH2 0x883 JUMP JUMPDEST PUSH1 0x40 DUP1 MLOAD TIMESTAMP PUSH1 0x20 DUP1 DUP4 ADD SWAP2 SWAP1 SWAP2 MSTORE CALLER PUSH1 0x60 SHL PUSH12 0xFFFFFFFFFFFFFFFFFFFFFFFF NOT AND DUP3 DUP5 ADD MSTORE PUSH1 0x54 DUP1 DUP4 ADD DUP9 SWAP1 MSTORE DUP4 MLOAD DUP1 DUP5 SUB SWAP1 SWAP2 ADD DUP2 MSTORE PUSH1 0x74 DUP4 ADD DUP1 DUP6 MSTORE DUP2 MLOAD SWAP2 SWAP1 SWAP3 ADD KECCAK256 PUSH2 0x174 DUP4 ADD SWAP1 SWAP4 MSTORE DUP3 DUP2 MSTORE SWAP1 PUSH1 0x94 ADD DUP8 PUSH1 0x1 DUP2 GT ISZERO PUSH2 0x639 JUMPI PUSH2 0x639 PUSH2 0xC52 JUMP JUMPDEST DUP2 MSTORE PUSH1 0x20 ADD PUSH1 0x0 DUP2 MSTORE CALLER PUSH1 0x20 DUP1 DUP4 ADD DUP3 SWAP1 MSTORE PUSH1 0x40 DUP1 DUP5 ADD SWAP3 SWAP1 SWAP3 MSTORE PUSH1 0x60 DUP4 ADD DUP10 SWAP1 MSTORE TIMESTAMP PUSH1 0x80 DUP5 ADD MSTORE PUSH1 0xA0 SWAP1 SWAP3 ADD DUP8 SWAP1 MSTORE PUSH1 0x0 DUP5 DUP2 MSTORE PUSH1 0x1 DUP1 DUP5 MSTORE SWAP2 SWAP1 KECCAK256 DUP4 MLOAD DUP2 SSTORE SWAP2 DUP4 ADD MLOAD DUP3 DUP3 ADD DUP1 SLOAD SWAP2 SWAP3 SWAP1 SWAP2 PUSH1 0xFF NOT AND SWAP1 DUP4 DUP2 DUP2 GT ISZERO PUSH2 0x69D JUMPI PUSH2 0x69D PUSH2 0xC52 JUMP JUMPDEST MUL OR SWAP1 SSTORE POP PUSH1 0x40 DUP3 ADD MLOAD PUSH1 0x1 DUP3 ADD DUP1 SLOAD PUSH2 0xFF00 NOT AND PUSH2 0x100 DUP4 PUSH1 0x4 DUP2 GT ISZERO PUSH2 0x6C7 JUMPI PUSH2 0x6C7 PUSH2 0xC52 JUMP JUMPDEST MUL OR SWAP1 SSTORE POP PUSH1 0x60 DUP3 ADD MLOAD PUSH1 0x1 DUP3 ADD DUP1 SLOAD PUSH3 0x10000 PUSH1 0x1 PUSH1 0xB0 SHL SUB NOT AND PUSH3 0x10000 PUSH1 0x1 PUSH1 0x1 PUSH1 0xA0 SHL SUB SWAP4 DUP5 AND MUL OR SWAP1 SSTORE PUSH1 0x80 DUP4 ADD MLOAD PUSH1 0x2 DUP4 ADD DUP1 SLOAD PUSH1 0x1 PUSH1 0x1 PUSH1 0xA0 SHL SUB NOT AND SWAP2 SWAP1 SWAP3 AND OR SWAP1 SSTORE PUSH1 0xA0 DUP3 ADD MLOAD PUSH1 0x3 DUP3 ADD SSTORE PUSH1 0xC0 DUP3 ADD MLOAD PUSH1 0x4 DUP3 ADD SSTORE PUSH1 0xE0 SWAP1 SWAP2 ADD MLOAD PUSH1 0x5 SWAP1 SWAP2 ADD SSTORE PUSH1 0x40 MLOAD CALLER SWAP1 DUP3 SWAP1 PUSH32 0x4963B6A0B6E56B56705F43CE976D27873095A5EE5C87582785BD46940B47790A SWAP1 PUSH2 0x766 SWAP1 DUP11 SWAP1 PUSH2 0xC68 JUMP JUMPDEST PUSH1 0x40 MLOAD DUP1 SWAP2 SUB SWAP1 LOG3 SWAP2 POP PUSH2 0x77A PUSH1 0x1 PUSH1 0x3 SSTORE JUMP JUMPDEST POP SWAP4 SWAP3 POP POP POP JUMP JUMPDEST PUSH1 0x0 PUSH2 0x23C DUP3 PUSH2 0x94B JUMP JUMPDEST PUSH2 0x797 DUP2 CALLER PUSH2 0x980 JUMP JUMPDEST POP JUMP JUMPDEST PUSH2 0x7A4 DUP3 DUP3 PUSH2 0x380 JUMP JUMPDEST PUSH2 0x2EB JUMPI PUSH1 0x0 DUP3 DUP2 MSTORE PUSH1 0x20 DUP2 DUP2 MSTORE PUSH1 0x40 DUP1 DUP4 KECCAK256 PUSH1 0x1 PUSH1 0x1 PUSH1 0xA0 SHL SUB DUP6 AND DUP5 MSTORE SWAP1 SWAP2 MSTORE SWAP1 KECCAK256 DUP1 SLOAD PUSH1 0xFF NOT AND PUSH1 0x1 OR SWAP1 SSTORE PUSH2 0x7DA CALLER SWAP1 JUMP JUMPDEST PUSH1 0x1 PUSH1 0x1 PUSH1 0xA0 SHL SUB AND DUP2 PUSH1 0x1 PUSH1 0x1 PUSH1 0xA0 SHL SUB AND DUP4 PUSH32 0x2F8788117E7EFF1D82E926EC794901D17C78024A50270940304540A733656F0D PUSH1 0x40 MLOAD PUSH1 0x40 MLOAD DUP1 SWAP2 SUB SWAP1 LOG4 POP POP JUMP JUMPDEST PUSH2 0x828 DUP3 DUP3 PUSH2 0x380 JUMP JUMPDEST ISZERO PUSH2 0x2EB JUMPI PUSH1 0x0 DUP3 DUP2 MSTORE PUSH1 0x20 DUP2 DUP2 MSTORE PUSH1 0x40 DUP1 DUP4 KECCAK256 PUSH1 0x1 PUSH1 0x1 PUSH1 0xA0 SHL SUB DUP6 AND DUP1 DUP6 MSTORE SWAP3 MSTORE DUP1 DUP4 KECCAK256 DUP1 SLOAD PUSH1 0xFF NOT AND SWAP1 SSTORE MLOAD CALLER SWAP3 DUP6 SWAP2 PUSH32 0xF6391F5C32D9C69D2A47EA670B442974B53935D1EDC7FD64EB21E047A839171B SWAP2 SWAP1 LOG4 POP POP JUMP JUMPDEST PUSH1 0x2 PUSH1 0x3 SLOAD SUB PUSH2 0x8D5 JUMPI PUSH1 0x40 MLOAD PUSH3 0x461BCD PUSH1 0xE5 SHL DUP2 MSTORE PUSH1 0x20 PUSH1 0x4 DUP3 ADD MSTORE PUSH1 0x1F PUSH1 0x24 DUP3 ADD MSTORE PUSH32 0x5265656E7472616E637947756172643A207265656E7472616E742063616C6C00 PUSH1 0x44 DUP3 ADD MSTORE PUSH1 0x64 ADD PUSH2 0x2D8 JUMP JUMPDEST PUSH1 0x2 PUSH1 0x3 SSTORE JUMP JUMPDEST PUSH1 0x0 DUP2 DUP2 MSTORE PUSH1 0x1 PUSH1 0x20 MSTORE PUSH1 0x40 DUP2 KECCAK256 SLOAD DUP2 SUB PUSH2 0x939 JUMPI PUSH1 0x40 MLOAD PUSH3 0x461BCD PUSH1 0xE5 SHL DUP2 MSTORE PUSH1 0x20 PUSH1 0x4 DUP3 ADD MSTORE PUSH1 0x17 PUSH1 0x24 DUP3 ADD MSTORE PUSH32 0x446F63756D656E7420646F6573206E6F74206578697374000000000000000000 PUSH1 0x44 DUP3 ADD MSTORE PUSH1 0x64 ADD PUSH2 0x2D8 JUMP JUMPDEST POP PUSH1 0x0 SWAP1 DUP2 MSTORE PUSH1 0x1 PUSH1 0x20 MSTORE PUSH1 0x40 SWAP1 KECCAK256 SWAP1 JUMP JUMPDEST PUSH1 0x0 PUSH1 0x1 PUSH1 0x1 PUSH1 0xE0 SHL SUB NOT DUP3 AND PUSH4 0x7965DB0B PUSH1 0xE0 SHL EQ DUP1 PUSH2 0x23C JUMPI POP PUSH4 0x1FFC9A7 PUSH1 0xE0 SHL PUSH1 0x1 PUSH1 0x1 PUSH1 0xE0 SHL SUB NOT DUP4 AND EQ PUSH2 0x23C JUMP JUMPDEST PUSH2 0x98A DUP3 DUP3 PUSH2 0x380 JUMP JUMPDEST PUSH2 0x2EB JUMPI PUSH2 0x997 DUP2 PUSH2 0x9D9 JUMP JUMPDEST PUSH2 0x9A2 DUP4 PUSH1 0x20 PUSH2 0x9EB JUMP JUMPDEST PUSH1 0x40 MLOAD PUSH1 0x20 ADD PUSH2 0x9B3 SWAP3 SWAP2 SWAP1 PUSH2 0xCB4 JUMP JUMPDEST PUSH1 0x40 DUP1 MLOAD PUSH1 0x1F NOT DUP2 DUP5 SUB ADD DUP2 MSTORE SWAP1 DUP3 SWAP1 MSTORE PUSH3 0x461BCD PUSH1 0xE5 SHL DUP3 MSTORE PUSH2 0x2D8 SWAP2 PUSH1 0x4 ADD PUSH2 0xD29 JUMP JUMPDEST PUSH1 0x60 PUSH2 0x23C PUSH1 0x1 PUSH1 0x1 PUSH1 0xA0 SHL SUB DUP4 AND PUSH1 0x14 JUMPDEST PUSH1 0x60 PUSH1 0x0 PUSH2 0x9FA DUP4 PUSH1 0x2 PUSH2 0xD72 JUMP JUMPDEST PUSH2 0xA05 SWAP1 PUSH1 0x2 PUSH2 0xD89 JUMP JUMPDEST PUSH8 0xFFFFFFFFFFFFFFFF DUP2 GT ISZERO PUSH2 0xA1D JUMPI PUSH2 0xA1D PUSH2 0xD9C JUMP JUMPDEST PUSH1 0x40 MLOAD SWAP1 DUP1 DUP3 MSTORE DUP1 PUSH1 0x1F ADD PUSH1 0x1F NOT AND PUSH1 0x20 ADD DUP3 ADD PUSH1 0x40 MSTORE DUP1 ISZERO PUSH2 0xA47 JUMPI PUSH1 0x20 DUP3 ADD DUP2 DUP1 CALLDATASIZE DUP4 CALLDATACOPY ADD SWAP1 POP JUMPDEST POP SWAP1 POP PUSH1 0x3 PUSH1 0xFC SHL DUP2 PUSH1 0x0 DUP2 MLOAD DUP2 LT PUSH2 0xA62 JUMPI PUSH2 0xA62 PUSH2 0xDB2 JUMP JUMPDEST PUSH1 0x20 ADD ADD SWAP1 PUSH1 0x1 PUSH1 0x1 PUSH1 0xF8 SHL SUB NOT AND SWAP1 DUP2 PUSH1 0x0 BYTE SWAP1 MSTORE8 POP PUSH1 0xF PUSH1 0xFB SHL DUP2 PUSH1 0x1 DUP2 MLOAD DUP2 LT PUSH2 0xA91 JUMPI PUSH2 0xA91 PUSH2 0xDB2 JUMP JUMPDEST PUSH1 0x20 ADD ADD SWAP1 PUSH1 0x1 PUSH1 0x1 PUSH1 0xF8 SHL SUB NOT AND SWAP1 DUP2 PUSH1 0x0 BYTE SWAP1 MSTORE8 POP PUSH1 0x0 PUSH2 0xAB5 DUP5 PUSH1 0x2 PUSH2 0xD72 JUMP JUMPDEST PUSH2 0xAC0 SWAP1 PUSH1 0x1 PUSH2 0xD89 JUMP JUMPDEST SWAP1 POP JUMPDEST PUSH1 0x1 DUP2 GT ISZERO PUSH2 0xB38 JUMPI PUSH16 0x181899199A1A9B1B9C1CB0B131B232B3 PUSH1 0x81 SHL DUP6 PUSH1 0xF AND PUSH1 0x10 DUP2 LT PUSH2 0xAF4 JUMPI PUSH2 0xAF4 PUSH2 0xDB2 JUMP JUMPDEST BYTE PUSH1 0xF8 SHL DUP3 DUP3 DUP2 MLOAD DUP2 LT PUSH2 0xB0A JUMPI PUSH2 0xB0A PUSH2 0xDB2 JUMP JUMPDEST PUSH1 0x20 ADD ADD SWAP1 PUSH1 0x1 PUSH1 0x1 PUSH1 0xF8 SHL SUB NOT AND SWAP1 DUP2 PUSH1 0x0 BYTE SWAP1 MSTORE8 POP PUSH1 0x4 SWAP5 SWAP1 SWAP5 SHR SWAP4 PUSH2 0xB31 DUP2 PUSH2 0xDC8 JUMP JUMPDEST SWAP1 POP PUSH2 0xAC3 JUMP JUMPDEST POP DUP4 ISZERO PUSH2 0xB87 JUMPI PUSH1 0x40 MLOAD PUSH3 0x461BCD PUSH1 0xE5 SHL DUP2 MSTORE PUSH1 0x20 PUSH1 0x4 DUP3 ADD DUP2 SWAP1 MSTORE PUSH1 0x24 DUP3 ADD MSTORE PUSH32 0x537472696E67733A20686578206C656E67746820696E73756666696369656E74 PUSH1 0x44 DUP3 ADD MSTORE PUSH1 0x64 ADD PUSH2 0x2D8 JUMP JUMPDEST SWAP4 SWAP3 POP POP POP JUMP JUMPDEST PUSH1 0x0 PUSH1 0x20 DUP3 DUP5 SUB SLT ISZERO PUSH2 0xBA0 JUMPI PUSH1 0x0 DUP1 REVERT JUMPDEST DUP2 CALLDATALOAD PUSH1 0x1 PUSH1 0x1 PUSH1 0xE0 SHL SUB NOT DUP2 AND DUP2 EQ PUSH2 0xB87 JUMPI PUSH1 0x0 DUP1 REVERT JUMPDEST PUSH1 0x0 PUSH1 0x20 DUP3 DUP5 SUB SLT ISZERO PUSH2 0xBCA JUMPI PUSH1 0x0 DUP1 REVERT JUMPDEST POP CALLDATALOAD SWAP2 SWAP1 POP JUMP JUMPDEST DUP1 CALLDATALOAD PUSH1 0x1 PUSH1 0x1 PUSH1 0xA0 SHL SUB DUP2 AND DUP2 EQ PUSH2 0xBE8 JUMPI PUSH1 0x0 DUP1 REVERT JUMPDEST SWAP2 SWAP1 POP JUMP JUMPDEST PUSH1 0x0 DUP1 PUSH1 0x40 DUP4 DUP6 SUB SLT ISZERO PUSH2 0xC00 JUMPI PUSH1 0x0 DUP1 REVERT JUMPDEST DUP3 CALLDATALOAD SWAP2 POP PUSH2 0xC10 PUSH1 0x20 DUP5 ADD PUSH2 0xBD1 JUMP JUMPDEST SWAP1 POP SWAP3 POP SWAP3 SWAP1 POP JUMP JUMPDEST PUSH1 0x0 DUP1 PUSH1 0x0 PUSH1 0x60 DUP5 DUP7 SUB SLT ISZERO PUSH2 0xC2E JUMPI PUSH1 0x0 DUP1 REVERT JUMPDEST DUP4 CALLDATALOAD PUSH1 0x2 DUP2 LT PUSH2 0xC3D JUMPI PUSH1 0x0 DUP1 REVERT JUMPDEST SWAP6 PUSH1 0x20 DUP6 ADD CALLDATALOAD SWAP6 POP PUSH1 0x40 SWAP1 SWAP5 ADD CALLDATALOAD SWAP4 SWAP3 POP POP POP JUMP JUMPDEST PUSH4 0x4E487B71 PUSH1 0xE0 SHL PUSH1 0x0 MSTORE PUSH1 0x21 PUSH1 0x4 MSTORE PUSH1 0x24 PUSH1 0x0 REVERT JUMPDEST PUSH1 0x20 DUP2 ADD PUSH1 0x2 DUP4 LT PUSH2 0xC8A JUMPI PUSH4 0x4E487B71 PUSH1 0xE0 SHL PUSH1 0x0 MSTORE PUSH1 0x21 PUSH1 0x4 MSTORE PUSH1 0x24 PUSH1 0x0 REVERT JUMPDEST SWAP2 SWAP1 MSTORE SWAP1 JUMP JUMPDEST PUSH1 0x0 JUMPDEST DUP4 DUP2 LT ISZERO PUSH2 0xCAB JUMPI DUP2 DUP2 ADD MLOAD DUP4 DUP3 ADD MSTORE PUSH1 0x20 ADD PUSH2 0xC93 JUMP JUMPDEST POP POP PUSH1 0x0 SWAP2 ADD MSTORE JUMP JUMPDEST PUSH32 0x416363657373436F6E74726F6C3A206163636F756E7420000000000000000000 DUP2 MSTORE PUSH1 0x0 DUP4 MLOAD PUSH2 0xCEC DUP2 PUSH1 0x17 DUP6 ADD PUSH1 0x20 DUP9 ADD PUSH2 0xC90 JUMP JUMPDEST PUSH17 0x1034B99036B4B9B9B4B733903937B6329 PUSH1 0x7D SHL PUSH1 0x17 SWAP2 DUP5 ADD SWAP2 DUP3 ADD MSTORE DUP4 MLOAD PUSH2 0xD1D DUP2 PUSH1 0x28 DUP5 ADD PUSH1 0x20 DUP9 ADD PUSH2 0xC90 JUMP JUMPDEST ADD PUSH1 0x28 ADD SWAP5 SWAP4 POP POP POP POP JUMP JUMPDEST PUSH1 0x20 DUP2 MSTORE PUSH1 0x0 DUP3 MLOAD DUP1 PUSH1 0x20 DUP5 ADD MSTORE PUSH2 0xD48 DUP2 PUSH1 0x40 DUP6 ADD PUSH1 0x20 DUP8 ADD PUSH2 0xC90 JUMP JUMPDEST PUSH1 0x1F ADD PUSH1 0x1F NOT AND SWAP2 SWAP1 SWAP2 ADD PUSH1 0x40 ADD SWAP3 SWAP2 POP POP JUMP JUMPDEST PUSH4 0x4E487B71 PUSH1 0xE0 SHL PUSH1 0x0 MSTORE PUSH1 0x11 PUSH1 0x4 MSTORE PUSH1 0x24 PUSH1 0x0 REVERT JUMPDEST DUP1 DUP3 MUL DUP2 ISZERO DUP3 DUP3 DIV DUP5 EQ OR PUSH2 0x23C JUMPI PUSH2 0x23C PUSH2 0xD5C JUMP JUMPDEST DUP1 DUP3 ADD DUP1 DUP3 GT ISZERO PUSH2 0x23C JUMPI PUSH2 0x23C PUSH2 0xD5C JUMP JUMPDEST PUSH4 0x4E487B71 PUSH1 0xE0 SHL PUSH1 0x0 MSTORE PUSH1 0x41 PUSH1 0x4 MSTORE PUSH1 0x24 PUSH1 0x0 REVERT JUMPDEST PUSH4 0x4E487B71 PUSH1 0xE0 SHL PUSH1 0x0 MSTORE PUSH1 0x32 PUSH1 0x4 MSTORE PUSH1 0x24 PUSH1 0x0 REVERT JUMPDEST PUSH1 0x0 DUP2 PUSH2 0xDD7 JUMPI PUSH2 0xDD7 PUSH2 0xD5C JUMP JUMPDEST POP PUSH1 0x0 NOT ADD SWAP1 JUMP INVALID LOG2 PUSH5 0x6970667358 0x22 SLT KECCAK256 ADDRESS 0xF8 0xD5 0xBD PUSH12 0x362D058B99B6374084F91602 SHR AND 0xE6 0xE5 CALLVALUE PUSH26 0xF5B6485413ABA39C7D64736F6C63430008140033000000000000 "},"methodIdentifiers":{"DEFAULT_ADMIN_ROLE()":"a217fddf","DOCUMENT_CREATOR_ROLE()":"5e9a6259","DOCUMENT_TRANSFERRER_ROLE()":"ff157a0e","DOCUMENT_VERIFIER_ROLE()":"5def9f85","createDocument(uint8,bytes32,uint256)":"ee209d50","getRoleAdmin(bytes32)":"248a9ca3","grantRole(bytes32,address)":"2f2ff15d","hasRole(bytes32,address)":"91d14854","renounceRole(bytes32,address)":"36568abe","revokeRole(bytes32,address)":"d547741f","supportsInterface(bytes4)":"01ffc9a7","transferDocument(uint256,address)":"e1025384","verifyDocument(uint256)":"6dda61d9"}}}}}