{
  "_format": "hh-sol-artifact-1",
  "contractName": "DocumentAccessControl",
  "sourceName": "contracts/AccessControl.sol",
  "abi": [
    {
      "inputs": [],
      "stateMutability": "nonpayable",
      "type": "constructor"
    },
    {
      "anonymous": false,
      "inputs": [
        {
          "indexed": true,
          "internalType": "bytes32",
          "name": "role",
          "type": "bytes32"
        },
        {
          "indexed": true,
          "internalType": "bytes32",
          "name": "previousAdminRole",
          "type": "bytes32"
        },
        {
          "indexed": true,
          "internalType": "bytes32",
          "name": "newAdminRole",
          "type": "bytes32"
        }
      ],
      "name": "RoleAdminChanged",
      "type": "event"
    },
    {
      "anonymous": false,
      "inputs": [
        {
          "indexed": true,
          "internalType": "bytes32",
          "name": "role",
          "type": "bytes32"
        },
        {
          "indexed": true,
          "internalType": "address",
          "name": "account",
          "type": "address"
        },
        {
          "indexed": true,
          "internalType": "address",
          "name": "sender",
          "type": "address"
        }
      ],
      "name": "RoleGranted",
      "type": "event"
    },
    {
      "anonymous": false,
      "inputs": [
        {
          "indexed": true,
          "internalType": "bytes32",
          "name": "role",
          "type": "bytes32"
        },
        {
          "indexed": true,
          "internalType": "address",
          "name": "account",
          "type": "address"
        },
        {
          "indexed": true,
          "internalType": "address",
          "name": "sender",
          "type": "address"
        }
      ],
      "name": "RoleRevoked",
      "type": "event"
    },
    {
      "inputs": [],
      "name": "DEFAULT_ADMIN_ROLE",
      "outputs": [
        {
          "internalType": "bytes32",
          "name": "",
          "type": "bytes32"
        }
      ],
      "stateMutability": "view",
      "type": "function"
    },
    {
      "inputs": [],
      "name": "DOCUMENT_CREATOR_ROLE",
      "outputs": [
        {
          "internalType": "bytes32",
          "name": "",
          "type": "bytes32"
        }
      ],
      "stateMutability": "view",
      "type": "function"
    },
    {
      "inputs": [],
      "name": "DOCUMENT_MANAGER_ROLE",
      "outputs": [
        {
          "internalType": "bytes32",
          "name": "",
          "type": "bytes32"
        }
      ],
      "stateMutability": "view",
      "type": "function"
    },
    {
      "inputs": [],
      "name": "DOCUMENT_TRANSFERRER_ROLE",
      "outputs": [
        {
          "internalType": "bytes32",
          "name": "",
          "type": "bytes32"
        }
      ],
      "stateMutability": "view",
      "type": "function"
    },
    {
      "inputs": [],
      "name": "DOCUMENT_VERIFIER_ROLE",
      "outputs": [
        {
          "internalType": "bytes32",
          "name": "",
          "type": "bytes32"
        }
      ],
      "stateMutability": "view",
      "type": "function"
    },
    {
      "inputs": [
        {
          "internalType": "bytes32",
          "name": "role",
          "type": "bytes32"
        }
      ],
      "name": "getRoleAdmin",
      "outputs": [
        {
          "internalType": "bytes32",
          "name": "",
          "type": "bytes32"
        }
      ],
      "stateMutability": "view",
      "type": "function"
    },
    {
      "inputs": [
        {
          "internalType": "address",
          "name": "account",
          "type": "address"
        }
      ],
      "name": "grantCreatorRole",
      "outputs": [],
      "stateMutability": "nonpayable",
      "type": "function"
    },
    {
      "inputs": [
        {
          "internalType": "address",
          "name": "account",
          "type": "address"
        }
      ],
      "name": "grantManagerRole",
      "outputs": [],
      "stateMutability": "nonpayable",
      "type": "function"
    },
    {
      "inputs": [
        {
          "internalType": "bytes32",
          "name": "role",
          "type": "bytes32"
        },
        {
          "internalType": "address",
          "name": "account",
          "type": "address"
        }
      ],
      "name": "grantRole",
      "outputs": [],
      "stateMutability": "nonpayable",
      "type": "function"
    },
    {
      "inputs": [
        {
          "internalType": "address",
          "name": "account",
          "type": "address"
        }
      ],
      "name": "grantTransferrerRole",
      "outputs": [],
      "stateMutability": "nonpayable",
      "type": "function"
    },
    {
      "inputs": [
        {
          "internalType": "address",
          "name": "account",
          "type": "address"
        }
      ],
      "name": "grantVerifierRole",
      "outputs": [],
      "stateMutability": "nonpayable",
      "type": "function"
    },
    {
      "inputs": [
        {
          "internalType": "bytes32",
          "name": "role",
          "type": "bytes32"
        },
        {
          "internalType": "address",
          "name": "account",
          "type": "address"
        }
      ],
      "name": "hasRole",
      "outputs": [
        {
          "internalType": "bool",
          "name": "",
          "type": "bool"
        }
      ],
      "stateMutability": "view",
      "type": "function"
    },
    {
      "inputs": [
        {
          "internalType": "bytes32",
          "name": "role",
          "type": "bytes32"
        },
        {
          "internalType": "address",
          "name": "account",
          "type": "address"
        }
      ],
      "name": "renounceRole",
      "outputs": [],
      "stateMutability": "nonpayable",
      "type": "function"
    },
    {
      "inputs": [
        {
          "internalType": "bytes32",
          "name": "role",
          "type": "bytes32"
        },
        {
          "internalType": "address",
          "name": "account",
          "type": "address"
        }
      ],
      "name": "revokeRole",
      "outputs": [],
      "stateMutability": "nonpayable",
      "type": "function"
    },
    {
      "inputs": [
        {
          "internalType": "bytes4",
          "name": "interfaceId",
          "type": "bytes4"
        }
      ],
      "name": "supportsInterface",
      "outputs": [
        {
          "internalType": "bool",
          "name": "",
          "type": "bool"
        }
      ],
      "stateMutability": "view",
      "type": "function"
    }
  ],
  "bytecode": "0x608060405234801561001057600080fd5b5061001c6000336100c9565b6100467f03847c74d68de5e0a49c00aaaccf34d71da3f82959b2047b47ec8d18e1b33cde336100c9565b6100707f3845dab673963d3dd1c93046d7db0c2116e30b9edf014c54695cc855db4980e5336100c9565b61009a7f5520d115ceffb88f02315d646cd7618d18024f657afe794865243ed5b75fb04f336100c9565b6100c47f1b77b615a6f7472dccc95da55ac737524d79ebe88c41b59b5af4f97cb402c021336100c9565b610175565b6100d382826100d7565b5050565b6000828152602081815260408083206001600160a01b038516845290915290205460ff166100d3576000828152602081815260408083206001600160a01b03851684529091529020805460ff191660011790556101313390565b6001600160a01b0316816001600160a01b0316837f2f8788117e7eff1d82e926ec794901d17c78024a50270940304540a733656f0d60405160405180910390a45050565b6109c2806101846000396000f3fe608060405234801561001057600080fd5b50600436106100f55760003560e01c80635def9f8511610097578063a217fddf11610066578063a217fddf14610228578063cffafec214610230578063d547741f14610257578063ff157a0e1461026a57600080fd5b80635def9f85146101b45780635e9a6259146101db5780635fcbf9cf1461020257806391d148541461021557600080fd5b806326e885e3116100d357806326e885e3146101685780632f2ff15d1461017b57806336568abe1461018e5780634d43e6f0146101a157600080fd5b806301ffc9a7146100fa5780630337c06114610122578063248a9ca314610137575b600080fd5b61010d610108366004610797565b610291565b60405190151581526020015b60405180910390f35b6101356101303660046107dd565b6102c8565b005b61015a6101453660046107f8565b60009081526020819052604090206001015490565b604051908152602001610119565b6101356101763660046107dd565b610301565b610135610189366004610811565b610332565b61013561019c366004610811565b61035c565b6101356101af3660046107dd565b6103db565b61015a7f3845dab673963d3dd1c93046d7db0c2116e30b9edf014c54695cc855db4980e581565b61015a7f03847c74d68de5e0a49c00aaaccf34d71da3f82959b2047b47ec8d18e1b33cde81565b6101356102103660046107dd565b610410565b61010d610223366004610811565b610445565b61015a600081565b61015a7f5520d115ceffb88f02315d646cd7618d18024f657afe794865243ed5b75fb04f81565b610135610265366004610811565b61046e565b61015a7f1b77b615a6f7472dccc95da55ac737524d79ebe88c41b59b5af4f97cb402c02181565b60006001600160e01b03198216637965db0b60e01b14806102c257506301ffc9a760e01b6001600160e01b03198316145b92915050565b60006102d381610493565b6102fd7f3845dab673963d3dd1c93046d7db0c2116e30b9edf014c54695cc855db4980e583610332565b5050565b600061030c81610493565b6102fd7f5520d115ceffb88f02315d646cd7618d18024f657afe794865243ed5b75fb04f835b60008281526020819052604090206001015461034d81610493565b61035783836104a0565b505050565b6001600160a01b03811633146103d15760405162461bcd60e51b815260206004820152602f60248201527f416363657373436f6e74726f6c3a2063616e206f6e6c792072656e6f756e636560448201526e103937b632b9903337b91039b2b63360891b60648201526084015b60405180910390fd5b6102fd8282610524565b60006103e681610493565b6102fd7f03847c74d68de5e0a49c00aaaccf34d71da3f82959b2047b47ec8d18e1b33cde83610332565b600061041b81610493565b6102fd7f1b77b615a6f7472dccc95da55ac737524d79ebe88c41b59b5af4f97cb402c02183610332565b6000918252602082815260408084206001600160a01b0393909316845291905290205460ff1690565b60008281526020819052604090206001015461048981610493565b6103578383610524565b61049d8133610589565b50565b6104aa8282610445565b6102fd576000828152602081815260408083206001600160a01b03851684529091529020805460ff191660011790556104e03390565b6001600160a01b0316816001600160a01b0316837f2f8788117e7eff1d82e926ec794901d17c78024a50270940304540a733656f0d60405160405180910390a45050565b61052e8282610445565b156102fd576000828152602081815260408083206001600160a01b0385168085529252808320805460ff1916905551339285917ff6391f5c32d9c69d2a47ea670b442974b53935d1edc7fd64eb21e047a839171b9190a45050565b6105938282610445565b6102fd576105a0816105e2565b6105ab8360206105f4565b6040516020016105bc929190610861565b60408051601f198184030181529082905262461bcd60e51b82526103c8916004016108d6565b60606102c26001600160a01b03831660145b6060600061060383600261091f565b61060e906002610936565b67ffffffffffffffff81111561062657610626610949565b6040519080825280601f01601f191660200182016040528015610650576020820181803683370190505b509050600360fc1b8160008151811061066b5761066b61095f565b60200101906001600160f81b031916908160001a905350600f60fb1b8160018151811061069a5761069a61095f565b60200101906001600160f81b031916908160001a90535060006106be84600261091f565b6106c9906001610936565b90505b6001811115610741576f181899199a1a9b1b9c1cb0b131b232b360811b85600f16601081106106fd576106fd61095f565b1a60f81b8282815181106107135761071361095f565b60200101906001600160f81b031916908160001a90535060049490941c9361073a81610975565b90506106cc565b5083156107905760405162461bcd60e51b815260206004820181905260248201527f537472696e67733a20686578206c656e67746820696e73756666696369656e7460448201526064016103c8565b9392505050565b6000602082840312156107a957600080fd5b81356001600160e01b03198116811461079057600080fd5b80356001600160a01b03811681146107d857600080fd5b919050565b6000602082840312156107ef57600080fd5b610790826107c1565b60006020828403121561080a57600080fd5b5035919050565b6000806040838503121561082457600080fd5b82359150610834602084016107c1565b90509250929050565b60005b83811015610858578181015183820152602001610840565b50506000910152565b7f416363657373436f6e74726f6c3a206163636f756e742000000000000000000081526000835161089981601785016020880161083d565b7001034b99036b4b9b9b4b733903937b6329607d1b60179184019182015283516108ca81602884016020880161083d565b01602801949350505050565b60208152600082518060208401526108f581604085016020870161083d565b601f01601f19169190910160400192915050565b634e487b7160e01b600052601160045260246000fd5b80820281158282048414176102c2576102c2610909565b808201808211156102c2576102c2610909565b634e487b7160e01b600052604160045260246000fd5b634e487b7160e01b600052603260045260246000fd5b60008161098457610984610909565b50600019019056fea264697066735822122032188dd7352a9664aca87808db7f2c9095daa46afae3702ad539fd9f5accfa2d64736f6c63430008140033",
  "linkReferences": {},
  "deployedLinkReferences": {}
}