{
  "_format": "hh-sol-artifact-1",
  "contractName": "DocumentRegistry",
  "sourceName": "contracts/DocumentRegistry.sol",
  "abi": [
    {
      "inputs": [],
      "stateMutability": "nonpayable",
      "type": "constructor"
    },
    {
      "anonymous": false,
      "inputs": [
        {
          "indexed": true,
          "internalType": "bytes32",
          "name": "role",
          "type": "bytes32"
        },
        {
          "indexed": true,
          "internalType": "bytes32",
          "name": "previousAdminRole",
          "type": "bytes32"
        },
        {
          "indexed": true,
          "internalType": "bytes32",
          "name": "newAdminRole",
          "type": "bytes32"
        }
      ],
      "name": "RoleAdminChanged",
      "type": "event"
    },
    {
      "anonymous": false,
      "inputs": [
        {
          "indexed": true,
          "internalType": "bytes32",
          "name": "role",
          "type": "bytes32"
        },
        {
          "indexed": true,
          "internalType": "address",
          "name": "account",
          "type": "address"
        },
        {
          "indexed": true,
          "internalType": "address",
          "name": "sender",
          "type": "address"
        }
      ],
      "name": "RoleGranted",
      "type": "event"
    },
    {
      "anonymous": false,
      "inputs": [
        {
          "indexed": true,
          "internalType": "bytes32",
          "name": "role",
          "type": "bytes32"
        },
        {
          "indexed": true,
          "internalType": "address",
          "name": "account",
          "type": "address"
        },
        {
          "indexed": true,
          "internalType": "address",
          "name": "sender",
          "type": "address"
        }
      ],
      "name": "RoleRevoked",
      "type": "event"
    },
    {
      "inputs": [],
      "name": "DEFAULT_ADMIN_ROLE",
      "outputs": [
        {
          "internalType": "bytes32",
          "name": "",
          "type": "bytes32"
        }
      ],
      "stateMutability": "view",
      "type": "function"
    },
    {
      "inputs": [],
      "name": "DOCUMENT_CREATOR_ROLE",
      "outputs": [
        {
          "internalType": "bytes32",
          "name": "",
          "type": "bytes32"
        }
      ],
      "stateMutability": "view",
      "type": "function"
    },
    {
      "inputs": [],
      "name": "DOCUMENT_TRANSFERRER_ROLE",
      "outputs": [
        {
          "internalType": "bytes32",
          "name": "",
          "type": "bytes32"
        }
      ],
      "stateMutability": "view",
      "type": "function"
    },
    {
      "inputs": [],
      "name": "DOCUMENT_VERIFIER_ROLE",
      "outputs": [
        {
          "internalType": "bytes32",
          "name": "",
          "type": "bytes32"
        }
      ],
      "stateMutability": "view",
      "type": "function"
    },
    {
      "inputs": [
        {
          "internalType": "bytes32",
          "name": "role",
          "type": "bytes32"
        }
      ],
      "name": "getRoleAdmin",
      "outputs": [
        {
          "internalType": "bytes32",
          "name": "",
          "type": "bytes32"
        }
      ],
      "stateMutability": "view",
      "type": "function"
    },
    {
      "inputs": [
        {
          "internalType": "bytes32",
          "name": "role",
          "type": "bytes32"
        },
        {
          "internalType": "address",
          "name": "account",
          "type": "address"
        }
      ],
      "name": "grantRole",
      "outputs": [],
      "stateMutability": "nonpayable",
      "type": "function"
    },
    {
      "inputs": [
        {
          "internalType": "bytes32",
          "name": "role",
          "type": "bytes32"
        },
        {
          "internalType": "address",
          "name": "account",
          "type": "address"
        }
      ],
      "name": "hasRole",
      "outputs": [
        {
          "internalType": "bool",
          "name": "",
          "type": "bool"
        }
      ],
      "stateMutability": "view",
      "type": "function"
    },
    {
      "inputs": [
        {
          "internalType": "bytes32",
          "name": "role",
          "type": "bytes32"
        },
        {
          "internalType": "address",
          "name": "account",
          "type": "address"
        }
      ],
      "name": "renounceRole",
      "outputs": [],
      "stateMutability": "nonpayable",
      "type": "function"
    },
    {
      "inputs": [
        {
          "internalType": "bytes32",
          "name": "role",
          "type": "bytes32"
        },
        {
          "internalType": "address",
          "name": "account",
          "type": "address"
        }
      ],
      "name": "revokeRole",
      "outputs": [],
      "stateMutability": "nonpayable",
      "type": "function"
    },
    {
      "inputs": [
        {
          "internalType": "bytes4",
          "name": "interfaceId",
          "type": "bytes4"
        }
      ],
      "name": "supportsInterface",
      "outputs": [
        {
          "internalType": "bool",
          "name": "",
          "type": "bool"
        }
      ],
      "stateMutability": "view",
      "type": "function"
    }
  ],
  "bytecode": "0x608060405234801561001057600080fd5b5061001c60003361009f565b6100467f03847c74d68de5e0a49c00aaaccf34d71da3f82959b2047b47ec8d18e1b33cde3361009f565b6100707f3845dab673963d3dd1c93046d7db0c2116e30b9edf014c54695cc855db4980e53361009f565b61009a7f1b77b615a6f7472dccc95da55ac737524d79ebe88c41b59b5af4f97cb402c0213361009f565b61014b565b6100a982826100ad565b5050565b6000828152602081815260408083206001600160a01b038516845290915290205460ff166100a9576000828152602081815260408083206001600160a01b03851684529091529020805460ff191660011790556101073390565b6001600160a01b0316816001600160a01b0316837f2f8788117e7eff1d82e926ec794901d17c78024a50270940304540a733656f0d60405160405180910390a45050565b6108108061015a6000396000f3fe608060405234801561001057600080fd5b506004361061009e5760003560e01c80635e9a6259116100665780635e9a62591461014b57806391d1485414610172578063a217fddf14610185578063d547741f1461018d578063ff157a0e146101a057600080fd5b806301ffc9a7146100a3578063248a9ca3146100cb5780632f2ff15d146100fc57806336568abe146101115780635def9f8514610124575b600080fd5b6100b66100b136600461060c565b6101c7565b60405190151581526020015b60405180910390f35b6100ee6100d9366004610636565b60009081526020819052604090206001015490565b6040519081526020016100c2565b61010f61010a36600461064f565b6101d8565b005b61010f61011f36600461064f565b610202565b6100ee7f3845dab673963d3dd1c93046d7db0c2116e30b9edf014c54695cc855db4980e581565b6100ee7f03847c74d68de5e0a49c00aaaccf34d71da3f82959b2047b47ec8d18e1b33cde81565b6100b661018036600461064f565b610285565b6100ee600081565b61010f61019b36600461064f565b6102ae565b6100ee7f1b77b615a6f7472dccc95da55ac737524d79ebe88c41b59b5af4f97cb402c02181565b60006101d2826102d3565b92915050565b6000828152602081905260409020600101546101f381610308565b6101fd8383610315565b505050565b6001600160a01b03811633146102775760405162461bcd60e51b815260206004820152602f60248201527f416363657373436f6e74726f6c3a2063616e206f6e6c792072656e6f756e636560448201526e103937b632b9903337b91039b2b63360891b60648201526084015b60405180910390fd5b6102818282610399565b5050565b6000918252602082815260408084206001600160a01b0393909316845291905290205460ff1690565b6000828152602081905260409020600101546102c981610308565b6101fd8383610399565b60006001600160e01b03198216637965db0b60e01b14806101d257506301ffc9a760e01b6001600160e01b03198316146101d2565b61031281336103fe565b50565b61031f8282610285565b610281576000828152602081815260408083206001600160a01b03851684529091529020805460ff191660011790556103553390565b6001600160a01b0316816001600160a01b0316837f2f8788117e7eff1d82e926ec794901d17c78024a50270940304540a733656f0d60405160405180910390a45050565b6103a38282610285565b15610281576000828152602081815260408083206001600160a01b0385168085529252808320805460ff1916905551339285917ff6391f5c32d9c69d2a47ea670b442974b53935d1edc7fd64eb21e047a839171b9190a45050565b6104088282610285565b6102815761041581610457565b610420836020610469565b6040516020016104319291906106af565b60408051601f198184030181529082905262461bcd60e51b825261026e91600401610724565b60606101d26001600160a01b03831660145b6060600061047883600261076d565b610483906002610784565b67ffffffffffffffff81111561049b5761049b610797565b6040519080825280601f01601f1916602001820160405280156104c5576020820181803683370190505b509050600360fc1b816000815181106104e0576104e06107ad565b60200101906001600160f81b031916908160001a905350600f60fb1b8160018151811061050f5761050f6107ad565b60200101906001600160f81b031916908160001a905350600061053384600261076d565b61053e906001610784565b90505b60018111156105b6576f181899199a1a9b1b9c1cb0b131b232b360811b85600f1660108110610572576105726107ad565b1a60f81b828281518110610588576105886107ad565b60200101906001600160f81b031916908160001a90535060049490941c936105af816107c3565b9050610541565b5083156106055760405162461bcd60e51b815260206004820181905260248201527f537472696e67733a20686578206c656e67746820696e73756666696369656e74604482015260640161026e565b9392505050565b60006020828403121561061e57600080fd5b81356001600160e01b03198116811461060557600080fd5b60006020828403121561064857600080fd5b5035919050565b6000806040838503121561066257600080fd5b8235915060208301356001600160a01b038116811461068057600080fd5b809150509250929050565b60005b838110156106a657818101518382015260200161068e565b50506000910152565b7f416363657373436f6e74726f6c3a206163636f756e74200000000000000000008152600083516106e781601785016020880161068b565b7001034b99036b4b9b9b4b733903937b6329607d1b601791840191820152835161071881602884016020880161068b565b01602801949350505050565b602081526000825180602084015261074381604085016020870161068b565b601f01601f19169190910160400192915050565b634e487b7160e01b600052601160045260246000fd5b80820281158282048414176101d2576101d2610757565b808201808211156101d2576101d2610757565b634e487b7160e01b600052604160045260246000fd5b634e487b7160e01b600052603260045260246000fd5b6000816107d2576107d2610757565b50600019019056fea2646970667358221220632849c4974e9122e244ddaa93e208ccd9b514e65dc9601051faa355722ae8b964736f6c63430008140033",
  "linkReferences": {},
  "deployedLinkReferences": {}
}